:020000040001F9
:1000000000C00100C1000100ED120000F11200006B
:10001000F5120000F9120000FD12000001130000AB
:10002000051300000000000000000000091300009C
:100030000D13000000000000111300001513000054
:10004000EB120000EB12000085020100210201000A
:100050007501010069140000EB120000AD140000EE
:1000600055010100EB1200000D1500003F020100D8
:1000700049020100530201005D0201006702010014
:10008000710201007B020100910101002D140000AA
:100090002D1400002D140000CD1300000D140000DD
:1000A000703601000348854600F03CF800480047E0
:1000B0009909010000C001000000000000000000DC
:1000C00072B615481549016000F004F8FFF7EAFF21
:1000D00000F062FC02461160121D9545FBD170478D
:1000E0006B46F0B469460E4A1047FEE7F220F7E788
:1000F000F320F5E7F420F3E7F520F1E7F620EFE74A
:10010000F720EDE7F820EBE7FB20E9E7FC20E7E745
:10011000FE20E5E7FF20E3E700BC0100EDA5CEDE11
:10012000E50D00001CB509480090094801900546FE
:100130000126009C05E0E36807CC33430C3C98475C
:100140001034AC42F7D3FFF7B1FF0000BC3601001A
:10015000BC36010010B5F3F715FF0446F1F7B7F907
:10016000A00106D501204006F3F7EAFE40BF20BFFC
:1001700020BF10BD80B5012080070068002801D095
:1001800030BFFDE700F074FBF0F7F4F880BD00002D
:1001900070B51D48B34D28181C490E68F4F784FA51
:1001A000F4F7EAF9002E2CD104461948295C0429F9
:1001B00001D8082000E00C20022900D802201549AF
:1001C0006956491C814201DB02F0E2FB12482C54C3
:1001D000E00703D001200005F3F7E4FEA00703D5F4
:1001E00001204005F3F7DEFE0C480168890605D5BD
:1001F0002021016001208005F3F7D4FE2020F3F7D1
:10020000D9FE40BF70BDC046AE630000140002407E
:100210002B62000029620000AA630000A8030140CD
:1002200080B50320F4F7E0F903F0B8F9F3F77AFDAD
:1002300002F0AEFBF3F79EFDF1F7C2FF80BD80B583
:10024000002002F07DF880BD80B5012002F078F832
:1002500080BD80B5022002F073F880BD80B5032018
:1002600002F06EF880BD80B5042002F069F880BD10
:1002700080B5052002F064F880BD80B5062002F04C
:100280005FF880BD034801680622914308224A4076
:10029000026070479C030140F0B58BB00493069157
:1002A0001146E52A019001D9082002E0812902D9EE
:1002B0000420059005E04F2901D8012200E0022228
:1002C0000592002215460792099217460892144695
:1002D000134603919BB28B421BD20698C65C002E3C
:1002E00014D09E0004988659002009998919099113
:1002F00047415E43089989190891039944419A1826
:100300001846584345190798401C079005981B1834
:10031000E0E70595069252485249085C801E02901B
:1003200000218BB2029898421CDD9B000498C358B0
:1003300003980E18B6B2304658430022089D2D1877
:10034000089554410998C01809905741069880199A
:1003500006907643059830180590491C0798401C74
:100360000790DEE7059EF317099839463246F0F705
:10037000D9FF03900D460698C317024606900898C9
:1003800021460293F0F7CEFF039A101A8D41EA1727
:100390000395294651405040801A9141079A56438F
:1003A000069A5243B61AC20F0A431AD0E20F00232C
:1003B000089DAA185C415208E50752190892FA0FE5
:1003C000099DAA185F415208FB07D21809924008FC
:1003D000CA078018F20FB218561064107F1049082F
:1003E000E1E70399002900D540420799002929D067
:1003F000002E27D00AAA3146F3F780FD0199086044
:10040000079AD31708982146F0F78CFF04460D464B
:1004100009983946069A029BF0F784FF201A8D410D
:10042000010E2A02511800020122520396420FDBEC
:10043000CA0F002380184B414008D90740185910B3
:100440007608F1E70498006801990860002004E04C
:100450000AAA3146F3F752FD019948600BB0F0BD8E
:100460004962000044400100F0B59FB00993119229
:10047000049107901926B0010C9025A88078C00639
:10048000002100280E9132D40A9612A8421C0F9225
:10049000024609320D92024622320B92123010901F
:1004A00000270E97142F21D00798C0198379002BAD
:1004B0001AD00E9A04794679360234190C9D6E1CB6
:1004C000B44211D21546D6B20D9A935501230F9A14
:1004D00093557300109AD452C479007A000200191F
:1004E0000B9AD0526D1C0E957F1DDBE70A9E249B54
:1004F00012A8123010900E98C0B242000D910C9CC0
:100500008A4208D012A84018408AA04201D2012095
:100510000D90891CF4E70998047812A8411C0391F6
:10052000014609310F91049A11460B310291223094
:100530000A901046603001904A3230010B904B20F7
:10054000000111990893034605900492002C0E981F
:10055000C6B227D00D460F787800105A0D990906BB
:1005600001D098421AD30B99884217D3069474008D
:1005700010990853B8000199085800F04BF9059BF1
:10058000049A0A990853069C0120039988550298F9
:10059000C05D0F9988550E98401C0E902946691C25
:1005A000641ED3E700201221784B074606900E9078
:1005B0000D90049086422CD0354612AA525AD41877
:1005C000A4B20B9EA136B4420AD23B46C7B20E9EDD
:1005D000761CF4B2022C05D00E960D972E4613E031
:1005E0002E4613E00D9B5B00109CE35A02240E94F0
:1005F0009A422E4606D9059CA34242D30C9CA242A5
:1006000044D81D46069204971F46604B891C401C27
:10061000D0E70E98C0B20228089B3CD13C46069811
:10062000C71B14DD0B98B84235D00B98C11BE003F3
:10063000574A801800252A46F3F760FC089B039967
:100640000D9A8D547843C117490C401812E00B984D
:10065000391820D00698C0034D4A801800252A4634
:10066000F3F74CFC089B03990D9A8D544743F817F8
:10067000400C3818C00B001904994900109A5052C8
:1006800009E012A908180021417003E00020039935
:100690000D9A8854089B00210C46119A8E4209D06D
:1006A00012A840184078002802D0E0B21154641C0F
:1006B000491CF3E7012120460C9400291CD00D9021
:1006C000C3B200200E9001279F420FD21199C85D3E
:1006D0000F9A155CC9194C1E2678925D954203D974
:1006E00020700E7001200E907F1CEDE70D98401ECB
:1006F000089B0C9C0E99E0E7E1B2994200D31946A1
:100700000998017001220846002A1ED00C90C0B240
:100710000E9000200D9001230E98834211D2119962
:10072000CF5C7800109A155AC818461E34786100BC
:10073000515A8D4203D23770047001200D905B1C1A
:10074000EAE70C98401E0D9ADEE70798C01D0021CD
:10075000119C099A1278914216D2625C5200109B49
:100760009A5AC31E1A70120A5A70625C52000A9B8F
:100770009A5A0270120A4270625C0F9B9A5C431E86
:100780001A70401D491CE4E71FB0F0BDA0FBFFFF3D
:100790000000A8FD01220021930605D0024200D0EE
:1007A000491C1206D20DF7E7C8B27047F8B50C46DF
:1007B000054616484178027891420ED2002D0CD49D
:1007C000072D0AD8002C08D4072C06D8EBB201223A
:1007D0009A4083681E5D324200D0F8BD47683F5D95
:1007E0003A42FAD016431E55491C41700026084F64
:1007F000082EF2D0B85D401940B2B91949780919EC
:1008000049B2FFF7D3FFB61CF2E7C046F839010042
:1008100004360100002807D4C10B08D0C10D05D152
:10082000010A4448084302E0002000E0014880B289
:100830007047C046FFFF000070B55200049CA2182C
:10084000128A04461D46002D05D00E882680891C7C
:10085000A41C6D1EF7E759000818801E192B06D23C
:1008600001885143C90B4180801C5B1CF6E770BDB9
:1008700010B586B027480068274A284988540020C8
:10088000182804D06A4600231350001DF8E7684674
:10089000A9228280224A028159228281214A920819
:1008A000214B1A434280214A8A1892081A43C28077
:1008B000012293031EA212889408E21842821D4A64
:1008C000A418C4821C4C0C19A4B2A408E3184381D8
:1008D0001A4B1B4CE3189B000C3309241C430423C4
:1008E0009C4304800988174BC91889B28908891864
:1008F000C1811549154A511889000C310C229143C8
:100900000A46093202820A3181820621EFF774FC1D
:1009100006B010BD88030140CA63000044400100D6
:10092000C90500000000010000C0FFFF24620000B4
:10093000803801000080FFFF5C62000000000000C2
:10094000BC3600009C66000078010000000000003A
:1009500005281BD878440079400087440417140206
:100960000207C80610E0480710D111E0094A4A43BF
:1009700001208303D218D20B2F23DB435343591892
:10098000052903D270470807400F01D000207047A7
:1009900001207047AB02000082B0012738065F4992
:1009A0000A1872B60A60D94E30183060F0F7F2FDBE
:1009B0005B485C4931505C485C4931505C485D495A
:1009C00031505D4C5D4830515D48456DB807006859
:1009D00000281CD0F3F7D6FA0028FBD5A806800F14
:1009E0000BD0F1F7CDFE574800218173564970189E
:1009F000326851181C22F0F7ADFCF1F759FC53484E
:100A00001021016041204006F3F79AFA7FE02C465E
:100A10000025EE433046F3F793FA00963046BB4E7E
:100A2000F3F79AFA28200194044227D04648341854
:100A3000F1F7A0FDE5816583BB2060801020414C6B
:100A4000172803D02554E575401CF9E72577404861
:100A5000A06164203F492A4601F072FF28462946DA
:100A600002F0A4FC1D205F2802D02554401CFAE7A8
:100A700001F08EFE38480F213154A573A248305C36
:100A800001F0D0FE01F040FF344800990160416060
:100A900001F004F93248305C294C2060F807F3F784
:100AA00081FAF3F777FA0028FBD467650198C0074D
:100AB00002D1F3F7BFFA10E02A48315A7D20C00076
:100AC00048432949F3F79CFAF3F706FD2748F3F763
:100AD00071FA05200003F3F765FAF1F7D5FB10254D
:100AE000184F172D0CD0284610387A5DC4B200215B
:100AF000204600F0DFFF204601F022FC6D1CF0E7ED
:100B000001200221BB220023EFF7C2FE0A4C30591C
:100B1000804740BF62B601F05FFBFCE70040010088
:100B200058620000BD170100546200003D0E010034
:100B3000506200008D1A00004C620000451B00004E
:100B400088030140983901003062000000E100E0B4
:100B500000000F0F4A02000048620000100004402D
:100B6000CA63000024630000B80B000010510000AD
:100B7000FEB50C46204988423CD8089F032F0290BE
:100B800001920DD0022F06D0002F0BD11846FFF78F
:100B900001FE830007E01846FFF7FCFD034602E074
:100BA000022300E0012315489E490D5AE120C600AA
:100BB000002D0AD0099938461F46FFF7C9FE99490A
:100BC0003B46002801D0280107E00D48085A0028BC
:100BD00001D0000101E03046C830019A0A21891A8B
:100BE000DAB25443CC40444302984643A64201D86B
:100BF0000020FEBD0120FEBD40420F003262000019
:100C00003E62000010B50024E0B2072803D201F0D4
:100C100097FB641CF8E710BDC8400AD00649814A1A
:100C2000515C090601D4401E04E0012801D0801E59
:100C300000E00020C0B2704756630000F0B587B0F6
:100C40003348017A012000295CD02F4A7549895C1C
:100C5000022957D800270397029703200190C04329
:100C60002C4E2D4900280CD03218535C5754432485
:100C7000A400155D175505AA121813711572401CB2
:100C8000F0E7264D02A8A86005A868606F7070792B
:100C90000F2800D30F202870082F14D00024082C10
:100CA0000FD00120A0406968C95D084207D0A9683B
:100CB000C95D084203D160B279B2FFF777FD641CC9
:100CC000EDE77F1CE8E770796978884205D9002252
:100CD0000F4B1A73197A019807E00D4B197A1A7B9A
:100CE0008A42019801D2521C1A738A4203D1002110
:100CF0001973012201E00022104609497254832130
:100D00004900725407B0F0BD2B620000444001005E
:100D1000983901008C3801000C010001F8390100FC
:100D200006010001F0B585B002933D4C3D4B1B5DC3
:100D30005B1E3D4C032B01D29B00E4188D008A18EA
:100D4000521CD3B20A9A934200D3134603922268EC
:100D500000924619049042590C9801900B9D084648
:100D600099420BD280CE97420C4600D80446974257
:100D700000D81746491C3A462046F1E7002D00D01E
:100D80002870C7B20021002F039846D0874244D272
:100D9000B900049840184568001F0668701BC21708
:100DA0005040AE42334600DB2B46821A049840582E
:100DB000C11A100C02D049105208FAE7002905D0D8
:100DC000D0030022F3F79AF8401000E01748AE4233
:100DD00000DB4042010A7E220A40009DA95A144BC2
:100DE00004461C401B1B5B1C4B43A91849886143EC
:100DF000C918490AFA0382180E481040084301999D
:100E0000002900D00860001202994143C817091355
:100E100081430948814200D3014688B205B0F0BD44
:100E20004562000044400100F4A60100FF3F0000BD
:100E3000FF0100000080FFFFFFFF0000F0B5FFB0E2
:100E40008CB00D921E9107468000F64D2818F64989
:100E500040580890F54828181D90007D2490F448CB
:100E6000285C0A9025A800240470F248285C0690AB
:100E7000F148295C07267B00F048027A0792012995
:100E8000219609D8BA02AA18101D2090032518200F
:100E900004221F92022208E03A02AA18101D209094
:100EA000702008221F92032235461D9EB67D239690
:100EB000E24EB67A22973D4003402B43069890407D
:100EC0001F9A10401843069001F02EFA139001204B
:100ED0001B90800707990029119606D0002E3246F4
:100EE0000DD0D64B1B1D1B9E0BE0016800290DD0B9
:100EF000CC490968D24A8B18D24A89580BE01B9E0C
:100F0000CE4B511E8A4151000E9108E0CC49C54A92
:100F10005318CC4951580905890F0E911B9E196829
:100F20000C910068002807D0BE480068C649405CA4
:100F30000B90F3F727F805E0C348BA49085C0B901B
:100F4000F3F728F80590209F0A98219908400A9005
:100F50000425182D06D01E9840190521F0F713FA24
:100F60006D1DF6E7AF4A2498A04203D047A8065566
:100F7000641CF8E733022498984205D247A900225E
:100F80000A54A84A401CF7E70E98239DC5401D98B7
:100F900081881591417D1691047D407E19210901BA
:100FA0001291A842049321D214943D6803211A910E
:100FB000411ECBB2012B00D801231A9868431A9026
:100FC0001D9AD47D907DD27C0E9E022E06D00526E1
:100FD0000C9F7E43209F360AB5420BD947AD002BAC
:100FE0000DD000262E706D1C5B1EF8E700202190AE
:100FF000229BA3E047ADEB185B1E00251D701A9BDA
:101000001B1919930E9BD8405243CDB2012D00D825
:101010000125199951431991EA03A900C919091F1A
:1010200025AB1C464A3410941C4640340F945C1C7B
:10103000099418331793C01CC0B218900020219057
:10104000229B1898854272D21C9247A800241F95B3
:1010500044550E684D6823918F681A98301A4019CC
:10106000C019C1178843214602462346F0F75AF9B2
:10107000199A801AA1410DD3B542229B239905D913
:10108000BD421C9E0BD2209F1F9D4AE0209F1F9DAA
:101090001C9E46E0209F229B1F9D1C9E40E01698B0
:1010A0000028209F1F9D0BD088A8149900910194BF
:1010B0000290E9B238462246159BFFF733FE01E065
:1010C00088962846574A6149515C002916D16049E3
:1010D000515C002901D01299401880B21399411A2D
:1010E0005C488142084600D35A480029214600D472
:1010F00001465948105A081A00D22046219B092B54
:101100000DD80121099AD1549900889A179C6250F0
:101110000F99CD545900109A50525B1C2193229B79
:1011200023994E488019421C091D6D1C89E71D98A2
:1011300081881591417D1691047D3A4A25A8014682
:1011400040311791014618311A91411C18914A30CB
:1011500023901494A11E0026414C1F912097042E29
:1011600000D196E00C20584310188019055DA94263
:1011700000DA8CE0A80039583818021F1268914232
:1011800002D94268914209D26D1CAA00BA588A421B
:1011900002D98068824201D2224A77E0169800285C
:1011A000E9B20BD088A80022149B00930192029010
:1011B0003846159BFFF7B6FD014601E0C80388904D
:1011C000184A2248105C002801D0229B1BE02048CE
:1011D000105C0028229B01D01298091888B213993C
:1011E000421A1C488242114600D31A490020002AA4
:1011F0001C90024600D40A460A491748095A511A57
:1012000000D21C99074A219809283FD8401C239AEC
:10121000401E27D0931C8FB21288BA42209F1A46D4
:10122000F6D131E04440010004400000306200008B
:101230002C6200002A6200002B620000803801004E
:101240004C630000546300006663000042620000CB
:101250004A620000FFFF000024620000FF7F0000E0
:101260000C410000219B1B98189AD05498001C90A8
:10127000889A1A981C9FC251209F1798C5545800ED
:10128000239A11525B1C2193F34A229B1F99761CCF
:1012900065E725A8219901700C2058438018EF4973
:1012A000401803211591CD43294600290CD042183E
:1012B000127947AC0023A354FC2A03D847AC121977
:1012C00093705370491CF0E788A847A9249C2246D4
:1012D0003B46FEF7E1FFE248DF4E305C0119899A98
:1012E00014925143CA17120E89180912889A139240
:1012F0008C18E1178C43691C614380003A583818F8
:10130000031F1B68D218406810184018C117884383
:10131000FFF780FA1E998870000AC870D1483056CD
:10132000002804D42046FFF775FACB4A05E0324680
:10133000CD490898884200D30846189B1E9908702A
:10134000000A4870002588951D9841890991017D02
:101350001291491E0F91808900B2089025A801467C
:101360000B3122916030169010952198854200D162
:10137000EFE0585D00287ED0A9001A981C914058D3
:10138000C10BC9B2149A5143CA17120E8918091217
:10139000139A8E18F1178E431B99401A01240028C6
:1013A0001F9508D4FD49491C884204D3A103411864
:1013B000C90B152976D3159846433046B04200DC58
:1013C000304619961799495D129A8A4200D80F99AA
:1013D000C9B289007D182A1F12687B586D680128E0
:1013E000014600D82146101AC01846191D98C08819
:1013F00086423BDDF01786431D98C07D0A18E548FC
:10140000E949405C05462492554345430024304653
:10141000214632462346EFF785FF281A20468841A9
:1014200024D21B961A981C9940181090249A571C85
:10143000781E844221D02494381945080026284675
:10144000314614462A463346EFF76CFF2246201AEF
:101450003046884100D20126002E2846249C00D127
:101460003846002E00D12C460746E1E70020189BA5
:101470001F9D5855C74A6D1C77E7002CCB4D1B9E0E
:1014800005D088AA30462146F3F7C6F805461698D7
:101490001C9946502846F0F7FFF8FF28209F2CD9CA
:1014A000FF202DE0BD4A10404900BE4A51184A882D
:1014B0008B889B18CD885B194243D20B9A1A0989F5
:1014C0004143C80B10180021109A0B46EFF72AFF72
:1014D0000904000C4018099A002A07D0C11712B25B
:1014E000D317EFF71FFFC905400A401808994018A5
:1014F00015994E4380191F9D60E72846F0F7CCF8F8
:10150000109A22991F9D48551468E00BC1B28800BB
:1015100038182246A14B1A40491CA14B43339A422A
:101520001B9406D2890079180268001F00681218FF
:1015300005E08900795802688A1808300146199B2D
:1015400008688018C01A1090189B93D20020109041
:1015500090E79748105A249025A81C304C2100236E
:10156000954A219F1C465B1CBB421AD225AD2D1902
:10157000AD78002D12D025AD2C196578002D0DD039
:1015800025AD6D5AAF26F600B54207D80568061F8F
:101590003668AD1B954201DC00256570891C001D75
:1015A000E0E70E98002802D0049D543500E078252D
:1015B000DA49249A7F48085C002800D085007648E4
:1015C000085C1F90002760264A2420972198B84283
:1015D00022D025A8C0194078002819D025A8005B82
:1015E000904215D385420DD925A880591F990091A5
:1015F0000D9901910C990E9A0B9BFFF7B9FA249A59
:10160000002805D0209BD8B288A90F545B1C2093DA
:10161000A41C361D7F1CD9E701212098002925D064
:101620002190C2B2002324935C1C94420FD288AD57
:10163000EE5C2299885DEF187D78495D814204D97E
:1016400088A8C5547E70012024902346ECE7219899
:10165000401E2499E2E7C0464440010004410000D6
:10166000496200002C620000FFFF00002098C7B212
:101670000A98874200D30A9F87A80770012138463D
:101680001F97239A00291ED02090C0B224900023D7
:1016900021935C1C2498844210D288AEF55C6F00C4
:1016A000D05BF61877787900515A814204D288A825
:1016B000C7547570012021902346EAE72098401E08
:1016C0001F9F2199DEE707980028119A1AD0002A57
:1016D00018D0DF48F44C205CF0F73EFEDD49635C37
:1016E00010301E9C21460D9A00F0AEFD0A98009025
:1016F0000598019025A988AA87AB2046FEF7B4FE7D
:10170000119A3AE01E98C41D88AE002F18D0357883
:1017100068002399085AE11E0870000A4870A80062
:1017200016990858FFF776F8119A2070000A607031
:101730002298405D611E0870761C641D7F1EE4E7E0
:101740000798002810D10E9802281F9912D10598E9
:10175000C00216D50424182C08D01E9800190521A3
:10176000EFF711FE641DF6E71F9903E087A800213B
:101770000170119A0798002803D0012A06D187A882
:10178000017808461E99069A01F0DEFC7FB00CB085
:10179000F0BDC046444001002B620000FF7F000006
:1017A00004410000A83A010043620000C0C62D00B9
:1017B000386200004B62000065260100F0B58BB076
:1017C0000AA80021089101700120059004065248E2
:1017D0000557B448B4490818417D808804900691A3
:1017E00002290DD1514E00964E48514904272A46F0
:1017F0003B46FFF721F800964A4800194C490CE097
:10180000474E00964748484903272A463B46FFF77C
:1018100013F800964348001943492A463B46FFF710
:101820000BF84448F04C20180990434827182F2003
:10183000C64308990A460D46059B002E2DD03868F0
:10184000002823D0079515460891E7493B480A5CD4
:101850009000081880193A49415C069800280ED07B
:10186000002002900AAC0194402000900998049B4B
:10187000FFF758FA059B2A462A18207802E02A46E4
:101880006A181046079D45190899491C1802099CB9
:10189000241809943F1D0C36CFE7C8B2401E032818
:1018A00026D8F94C78440079400087440119051284
:1018B00024482252E8B220E0234842431903521838
:1018C000530B204AA352AAB2424350181A46400B67
:1018D0000CE0901C82081B482252A81C800805E0DE
:1018E000501C420817482252681C4008C0B204E04D
:1018F00014480022EF4C22521046144962522368C9
:101900005A52134A9918022801D33F2800D30220C3
:10191000A05408700BB0F0BDA63A0100444001008D
:10192000E4350100A83A01003E360100C43501004B
:101930000C3601005C6200005C660000AD660000D1
:101940009C660000A8660000AB0A0000246200004C
:1019500049620000F0B589B0CA4ED64CA05DF1F7DF
:10196000AEF9054636482156A05DF1F7ABF8354F84
:10197000E25B6B08824248D20190A05D012801D849
:101980000F2500E03F25154001218907096800293E
:1019900002931AD03F21C943012800D83031CF1813
:1019A000012A03D1F1F70EFB2648225AB8B2401C97
:1019B00090420AD12448017A002902D0807A012875
:1019C00003D1F1F7ADFA1F48225A1D482156A05DF8
:1019D000F0F75DF806461D48235803AF2846394600
:1019E000324698471A48205CF0F7B6FC1949635C08
:1019F000103039463246F0F775FC124FE05B401C60
:101A0000E05340BFE25B029B019800280BD082426A
:101A100009D10125A8031E46F2F7C4FAE802F2F73D
:101A200087FA3346E25B9A4208D301252803F2F78E
:101A30007FFA6802F2F7B6FA0020E05309B0F0BD71
:101A40002A62000026620000803801005462000013
:101A5000286200002C62000070B5124ABB4B9C1833
:101A6000124D8D40A5801A68114BD552002901D026
:101A7000782600E028262681D518AE80002901D0DE
:101A8000502200E01922A275AA74002901D0012277
:101A900000E0022262756A74FFF7BEF820752874B0
:101AA00070BDC0463062000044400100420F00009B
:101AB00034620000F0B587B01346914256D0164606
:101AC00005460B301F22024001273C469440424805
:101AD0000694046004973846A84007221640BFF3D6
:101AE0004F8FBFF36F8F3D4FC4B2042E02D23868C0
:101AF000A0433860E0433A6A02403A623A460594AD
:101B0000FC613748069C0460012913D1022003952B
:101B10001D46F2F769FD01F041FD3248D34908182E
:101B2000F2F7C2FD3A462B46039D30480168049CFB
:101B3000A1430160701E062818D8C0467844007979
:101B4000400087441603030E0B0E0B00106A059924
:101B50000843106226480699016007E00599516321
:101B600001E00599D162106808431060184607B07B
:101B7000F0BD464FBD4CE05B029002201D490A4675
:101B80000393F2F71FFDF2F717FDE05B7F26F243A8
:101B900001921040E053E019F2F75CFD1148201863
:101BA000F2F794FD02993140E05B019A1040401831
:101BB000E0530E480168049A11430160284600F082
:101BC000BFFB039B054A106A059908431062F3485E
:101BD00006990160CAE7C04680E100E004000440C5
:101BE00080E200E0AE6300004440010000100040CD
:101BF00000E100E0A0860100FEB51C4615460191FB
:101C00009949E54F78543A685054E94BF858032203
:101C1000029212059043795C022900D30221090542
:101C20000143F9507F263540F1F762F91748395AD8
:101C300072020A4001998907C90D51184919395290
:101C40001348044013483958134A0A401119089A96
:101C50009205120B89183950D54BF8580F2189027B
:101C600088430999029A11400A0380188A02801851
:101C7000F850002901D0142000E01920CD49087047
:101C8000FEBDC0462B620000444001005C630000C2
:101C9000FF030000506300000000F0FFC448BE498D
:101CA00008580005800F01D0142000E01920C14918
:101CB00008707047444001007CB5044683888278F0
:101CC00041780078E588E67800950196FFF794FF63
:101CD000E178E088FFF7C0FE7CBD0000F8B572B681
:101CE000194DAD4E705D80072BD519480068C007AF
:101CF00027D0F2F77FF9002823D130681549405CDE
:101D000002281ED11448006800281AD1F2F73AF9C7
:101D1000044651200702F2F73DF9BC4211D10521DA
:101D2000090388420DD1705DC00703D10120400630
:101D3000F2F738F9FEF79CFD715D04200840EEF7DC
:101D400025FB62B6F8BDC0462D620000444001008C
:101D500050010040AB66000030040040F8B50D466D
:101D6000009041488C4F395C8F4C206801F020F87E
:101D7000064660683E49785016202946F0F7D8F9A3
:101D800069684A228E54310A6A684B23D154217AF9
:101D90006A684C23D154374979188A7E6B685F246E
:101DA0001A55CA7E6B68A0241A55CA7B6B68A32497
:101DB0001A558A7B6B68A2241A55CA786B68A524C9
:101DC0001A5589786A68A423D15480229649872AB3
:101DD00006D08B18803B1B786C68A354521CF6E726
:101DE0006A68CB79872413550A7A6B6870241A5570
:101DF0004A7A6B6871241A558A7A6B6872241A556C
:101E0000C97A6A687323D1541B490A88130A6C681B
:101E1000B126A3556B68B0241A556A688B78B22432
:101E200013556A68CB78B32413556A684B79B42488
:101E300013556A6809796D23D15469680F4A527A3B
:101E40006E23CA54E049795C6A687423D154696886
:101E50000B4A12787823CA54002800D0F8BD69686C
:101E60002022009B8B54F8BD2B62000044400100EF
:101E70004C630000306200008C380100983901008A
:101E8000A43A0100FEB5434820250560BFF34F8FFB
:101E9000BFF36F8FEA48EB4E0027375401A8EEF7E7
:101EA000C9FC0198047A3D48056020461038082591
:101EB0000F2814D920464038092822D2E00038499A
:101EC000401838494018FFF7F7FE01A92046FFF7F0
:101ED00045FF054620462946F1F7BEFAFEBDC0463D
:101EE0007844007940008744310807072B271B1EE0
:101EF0004207070707072319ECE701A8F0F7BAF82C
:101F0000E7E720468038032804D201A92046EFF7EE
:101F100001FDFEBDFF2CDDD10D25DBE7F84308E018
:101F2000162001A9D3E7172001A9F0F701F9D0E79E
:101F3000012000F04DF8CCE701A800F07BF8C8E7DD
:101F400001A800F077F805460028C3D11648007AAA
:101F500000F0B4FC01A8F0F78DF8144806210160E8
:101F6000134830580005800F0AD0142009E01820CB
:101F700001A9F0F7DDF8029800F01EF83D46A9E748
:101F800019200C490870F0F7F3F80546FEF73AFE01
:101F9000A0E7C04680E100E04440010000E100E02D
:101FA0007436010000FEFFFF803801008403014009
:101FB00054630000A53A010022300021814A4229E1
:101FC00004D053185B7B4354491CF8E7002070474A
:101FD000F8B5FB490A7B53B2C318144C25682D068B
:101FE0006468E407240A6419E4151D1901231E021C
:101FF000AD196D0A16D1DE070D4B1F683D46354001
:1020000004D11C6034431C602746354612180A73FD
:10201000F905C9150818284318600120F2F77AFB62
:102020000020F8BD0E20F8BDA839010018000140BD
:1020300030100140F0B589B0054600682021415CB0
:102040000A46403A04462034092A00D39BE005940E
:102050005A49DE4A5618F1F70FFA03902F462868BE
:1020600002464A32547DB476D84909680491544BEB
:10207000CD182C76A024045DF4766C760446A0344A
:10208000E3781B02F381A1785918F181A981617964
:10209000090271802379C9187180494B049CE1526F
:1020A0000146243149782423C35C0902C91889B246
:1020B00053784A24005D1B02181880B2927800F011
:1020C0003FFC8024872C0ED020468038BC490D1957
:1020D000803D29783A68165DC0B23246FFF7EAFCC7
:1020E0002E70641CEEE702973C6820466D30817EBE
:1020F000B34EF171C17804913172057975724379EB
:10210000B3728279F2722746B0377978B026A65D2D
:102110000902891907AE3180B978B170F978F17088
:10212000397971716D21615C3171C0792649A74E91
:10213000705434686054204C305D2449711800920A
:10214000019104992A4600F0B5F8305D00F06AFB71
:102150002048305A002806D11D48305C002802D0A3
:102160000225059C0AE0029800686E21405C06A9E1
:10217000087007A801F01AF9059C039D0020207043
:10218000284609B0F0BD182906D0172908D016290D
:1021900000D15CE70925F1E700F01CFE0025EDE722
:1021A000F1F776FB054600F0F3FA0348F149085CC5
:1021B00000F038FBE2E7C0462B620000306200000E
:1021C00032620000A8390100486200002663000066
:1021D000BE63000024630000B0B5184CA07B401C17
:1021E000A07300F049FA0320C502F1F7CBFE2840A6
:1021F000A84201D1FFF7AEFB01208007006800284C
:1022000004D0A17B1B2000F0BBFB13E06B480068EF
:10221000C1B2102000F0B4FBA17B1A2000F0B0FB8B
:102220000748D449085C002802D0FFF72BFE40BFC6
:10223000FFF754FDEFF7D6FEB0BDC0469839010058
:10224000A863000044400100F8B50091014607244E
:102250001C401D07ED0F6E00F61C6643DF06FF0FE6
:102260009B06D80FC3195B00F3185343C9187A00B3
:102270008918400008180099C91D002C18D003784F
:10228000CE1E0022727033704778777033704B1E09
:1022900086781E70002D01D1C01C06E0C3784A70FC
:1022A0000B7002794A700B70401D491D641EE4E7F3
:1022B000F8BD0000F0B5022801D30F2400E0072488
:1022C000E51A00D20025174B022801D3184600E07A
:1022D000FF208C42264600D30E46E840B34094428D
:1022E000214600D311461840069A059B15460E4616
:1022F000002E04D000272F80AD1C761EF8E79C42EC
:10230000254600D31D464B00D218A94207D810809D
:10231000921C491CF9E700201080921C491CA14224
:10232000F9D9F0BDFFFF0000022901D3034900E005
:10233000014908567047C046843A0100043A01003A
:10234000F8B504461D4805681D48075DE9B2102030
:1023500000F016FB01263346A3401D4007203840FD
:10236000032818D002280BD001281BD11548002DB6
:1023700021D01549F44A515A7F220A40026011E0E7
:102380001F46002D0AD0B004F1F714FE2120C0042E
:10239000F1F7D6FD05E01F46002DF4D03006F1F729
:1023A00009FE3B46054803620B341F20204086404F
:1023B00007480660F8BD00210160F3E70000044013
:1023C000A8390100A00301405C6300004440010003
:1023D00080E200E070B500F093FF0446012675022C
:1023E0002846F1F7ADFD2846F1F7B6FDF0F7B2FF4C
:1023F00035032846F1F7D6FD2846F1F7DBFDE00767
:1024000007D07003F1F7D6FDF0F71EFDF003F1F7EA
:10241000C9FDA007564801D502210160610701D519
:102420000421016070BDC046FEB5F1F7ABFD044666
:102430004507F1F7AFFD002D02D5410700D58EE02D
:10244000E10700D080E002900125AE04600307D5CB
:1024500000F01EF9E804F1F7ADFD3046F1F770FD2C
:1024600003208704E00107D520463840B04203D05E
:102470002120C004F1F764FD20040CD5E803F1F736
:102480005FFDE64800687749405C002803D1F0F71B
:10249000ABFF374805602E02E0031ED52804F1F794
:1024A0004FFDDE4A10686F49405C002804D0F0F709
:1024B0009BFFDA4A2E48056034420ED02E48105A4F
:1024C00000280AD102200190F1F76CFD0198F1F784
:1024D00071FDF2F771F8F0F70DFF28482040103633
:1024E000B04204D13046F1F72BFD00F04FFB4037EE
:1024F0002740402F04D14020F1F722FD00F07EFB61
:10250000A00611D560040FD5AE03029830420BD05F
:1025100030462030F1F714FD3046F1F71DFD8B48B1
:10252000E349085C00F0C2FA600505D5A802F1F79E
:1025300007FD08200E49086020060FD58020F1F71E
:10254000FFFCF0F7EFFEFEBDF1F7ECFB00F020FA28
:102550000420F1F727FD0120F1F7F2FCFEBD032076
:10256000F2F742F801F01AF8EFF72AFEFEBDC04676
:1025700040110140444001002463000010010C00A0
:10258000F8B5F1F7FFFC0546F1F704FD0446052018
:1025900005420AD0E80707D0F1F7ECFB0420F1F779
:1025A00001FD0120F1F7CCFCF8BD680626D52D48C9
:1025B000D34E305C002811D0A8041ED4EEF7AAFB3D
:1025C00000281AD02848315CEA48305C274A17684E
:1025D000F0F76FFB874210D2F0F788FB4020F1F74D
:1025E000AFFC2348305880470120C6023046F1F73F
:1025F000E1FC3046F1F7D6FC00E040BFA8052ED53F
:10260000012675022C422AD0DC48017A002909D023
:10261000817A012909D1174A002181548172402011
:10262000FFF71AFAFFF7D6FE19E0124946548672F0
:10263000007A022801D0DA2001E0D12040000221F6
:10264000FFF70AFA2846F1F77BFC2846F1F784FCED
:1026500034032046F1F7A6FC2046F1F7ABFCF0F777
:10266000F3FBF8BDAC6600002C62000030040040B3
:10267000586200000A00000180B501208007006850
:10268000002802D0FFF77CFF80BDFFF7CDFE80BDA4
:10269000F8B5F1F719FF2B48B74C2018F2F704F8FA
:1026A00000F076F9294D665730464130C0B22849CE
:1026B0000F68EEF763FC002F3CD0002E09D4AF4822
:1026C000017A00292ED0AB49625C042A0ED8082179
:1026D0000DE072B6F1F756FC400705D11D48F1F741
:1026E00069FC0220F1F75EFC62B623E00C21022AAD
:1026F00000D80221022A01D8002200E00122D140A4
:10270000427A002A07D0012A0CD10022002E08D0DC
:102710008E4206D006E0002E01D08E4202D18E19E4
:1027200001224272F1F7D8FE701E605521684855AB
:10273000300603D04020F1F73DFCF8BD1120000128
:10274000F9E7C046AE630000444001002962000082
:10275000140002400200000410B50C490A6802701F
:1027600000224F2A03D008C98354521CF9E70121E3
:1027700042560F231340284C23700023C0560028D4
:1027800000D4130923480370084610BD44000140DB
:10279000B0B594B000201E4C802807D000212154F1
:1027A000221801231B06D154401CF5E719480021CB
:1027B0000170194801704048E74D285C002809D095
:1027C000012000062118164A1318204600F026FBA7
:1027D00014B0B0BD6846FFF7BFFF0028F0D06846D0
:1027E000017807220A40AF4BEA548906490FAC4AE8
:1027F000A954012109066218214600F03FFB0D2073
:10280000A9494F28DCD06A46125C0A54401CF8E7FC
:10281000043A0100A63A0100A43A01004440010034
:10282000843A010070B594B00446BF20C043EE4D19
:1028300020490246002A05D0AB180646BF365E5036
:10284000121DF7E71C48285C002801D014B070BDA9
:102850006846FFF781FF0028F8D0012C0CD86846A5
:10286000007841060ED440B200281AD4BC4829187A
:10287000684600F04BFBE9E7022CE7D100206946EF
:10288000085600E040B2002805D4B548291868462B
:1028900000F024FBDAE7B2482918684600F0CAFBCA
:1028A000D4E7AF482918684600F0DDFBCEE7C04604
:1028B000444001001C6300004B63000010B50E494A
:1028C0002E4C60542072002802D04020002108E0E5
:1028D0000A48C54908580003800D0A4A8958090565
:1028E000890FFFF7B9F80021A1726172012000067B
:1028F00020188172417210BD080000015063000071
:10290000444001005463000010B567490C7B00206F
:10291000087361B201290DDB00280BD10120FFF7FC
:1029200057FB641EF5E7002807D10020C043FFF7DE
:102930004FFB641C61B20029F5D4C0B210BDC04683
:10294000F8B50C4605461046FFF7B8FF8748A64F76
:10295000395C2846F0F738FD01210906074D68501B
:1029600028606E188148395C2046F0F72DFD7060B4
:102970006860F8BD2B62000044400100803801000F
:10298000024A13681954526811547047E410000049
:1029900010B50020444A01460346072B0DD0D45CF5
:1029A000052C05D0042C06D101249C40214302E0D3
:1029B00001249C4020435B1CEFE7024A90601160B9
:1029C00010BDC0463000044070B5144804680021B2
:1029D000354A0B460D46072D0DD0565D052E05D008
:1029E000042E06D10126AE40334302E00126AE405C
:1029F00031436D1CEFE7234203D10C408C4200D1E0
:102A000070BD83630163D079012803D00228F7D118
:102A1000C82000E06420F1F77DFE70BD0000044096
:102A2000FEB51E48D14D285C000736D5CE4EA85DB8
:102A3000012828D8DD482C18F54FB87A7A7A397AE7
:102A4000FB7A5B005B1CDBB2009301944906090E24
:102A50005206120E4000401CC3B20220FFF72AFCAF
:102A6000D1482A5CC948295CC948285C234600F043
:102A700035FDA85DBB7A7A7A397AFD7A00950194A2
:102A8000FFF718FCFEBDC8482A5CC048295CC04856
:102A9000285CC64BEB1800F021FDFEBD2D62000046
:102AA0004863000047630000A8390100FEB50446F2
:102AB000264800782649F1F791FA26480721016057
:102AC0004160AA4D2868254941180091AD49421836
:102AD00024494318244826462146F1F7EDF9A24837
:102AE0002C46285C012805D82348817802AA9170D9
:102AF000224904E01E48817802AA91701D498B7812
:102B000001ADAB70037840780002C01810800878DF
:102B100049780902081828801948017802A801702C
:102B200001AD2970174961180091174FE319221D53
:102B30003146F1F7C1F92068124941180091C319D3
:102B4000021D28463146F1F7B7F9FEBD8447000063
:102B50006447000000010240444001006C66000030
:102B60005C6200005C660000604700002B620000B1
:102B7000544700005A470000574700005D470000D7
:102B8000A53A0100044100000440000070B57948F6
:102B9000764DFF212954154A1368154C2C5D2E687B
:102BA00031548020184020431060EEF75DFE7B48D2
:102BB0002C182046F1F784FA0E48285C2146F1F7DC
:102BC000A9FA6E482818F1F79BFCF1F7D5FC0A48E2
:102BD000012101606648285C002801D0FFF7F4FE5F
:102BE00000F00CF870BDC04644400100B403014041
:102BF000C96300004963000004000240F0B5B5B0AD
:102C0000594B5A4EF05C042801D8082200E00C22EF
:102C1000022800D802225649755C5649715C4C1C4A
:102C2000554F397A0029049249D0022801D800234F
:102C300000E001230395DA40E3B2002B03D07D7A54
:102C40009A4202D00FE04C4D6D7A002D0BD101213C
:102C5000797200214022009201911722F923FEF798
:102C6000CBFF039D24E09A4203D1012D07D0039DA1
:102C700024E0049E9E4273D1012D3C4EF7D10023E7
:102C80007B72A41A0229039D08D10221D12253008C
:102C9000009301911F330321332206E00221DA223F
:102CA0000092019103215D22F923FEF7A5FF3F1D4C
:102CB0003868324970507018F1F722FC2A4B2D49C0
:102CC000745430684454E2B20498904243D9F05CA2
:102CD000210601D0032815D32949715C294BF3182B
:102CE00000932F4605AD2B46F1F754F8264832588D
:102CF0002648315C2648305C2B463D46F1F750FAB9
:102D0000FFF78EFE012004406000C540A80711D0E7
:102D1000FFF75AFE1F48315A1F4A0A406908C9077F
:102D2000890D511831523018F1F794FC1B483018B6
:102D3000F1F7CCFCA0003168081819490968194A54
:102D400081501948305C19497118F1F747F920464C
:102D5000F1F720FC02E08020F1F72CF935B0F0BD4E
:102D6000039D014B014EAAE72B6200004440010085
:102D70004663000029620000803801004C630000B7
:102D8000666300005C62000020630000486300008E
:102D9000476300005C630000FFFD0000AE630000BD
:102DA00020100140A06600004A6300002663000076
:102DB000042901D8082200E00C22022900D80222AE
:102DC0005043800A0249884200D308467047C046F3
:102DD000FFFF000070B50146223100220C48422A54
:102DE00004D08B5C84186373521CF8E701210E0633
:102DF000084CA5190D3021462A4600F074F9064A00
:102E000093192046294600F009F8002070BDC046FD
:102E1000A8390100043A0100843A0100F0B585B0F8
:102E200004910390029301920020022824D0009084
:102E3000820001A9895803AB9A580023042B18D0AB
:102E400000240D46102C10D01657171901203856A3
:102E500030181026BE5780191126BE578019801CC5
:102E6000800828706D1CA41CECE7083120325B1C24
:102E7000E4E70098401CD8E705B0F0BD80B50378C2
:102E80005B0607D40020802807D0002313540B547E
:102E9000401CF8E70D3000F026F980BDF8B500922F
:102EA0000D4606460020C74303204402A74214DA19
:102EB0003046294600F044F83F18A742F6DA1F20B2
:102EC000384001218140F817C00E381840118000A9
:102ED000009B1A588A431A50E8E7F8BDBCB50C4667
:102EE00005460078400601D50D2200E0162201A813
:102EF0000221234600F036F800202856002804D48A
:102F000001A829462246FFF7C9FFBCBDBCB50C4647
:102F100005460078400603D401A816214F2202E09E
:102F200001A802210D22234600F01CF8002028569B
:102F3000002804D401A829462246FFF7AFFFBCBDF4
:102F400070B5037845780024394ADEB2AE4206D81F
:102F50008E5D5B1C0370A419FF2EF6D0621C90B22C
:102F600070BDC0460170511E4170002B07D000207B
:102F7000C02804D00021C9431950001DF8E770474C
:102F8000F0B587B00092069100210191CB430678FD
:102F90004578C17805918778032251020497029100
:102FA0008B4242DA0393019AEBB20699CC5C059905
:102FB00073180370F6B2F440DEB2082E15D3083B46
:102FC00003706D1C4570EEB201798E4203D9002466
:102FD0001E46174A0AE019060DD00699895DDEB231
:102FE000059FBE1B049FB1400C191E463C401219A0
:102FF000BC42D9D001E00026F8E7511C89B2039BFE
:103000005B1802998B42CBDA1F21194001228A40BA
:10301000D917C90E591849118900009C03936358A8
:10302000934363500299039BBAE707B0F0BDC046D3
:10303000580B0000BFB50C460546007800914006CD
:1030400001D50D2300E0162302A80C22294600F02A
:1030500026F800202856002804D402A82946224633
:10306000FFF78EFFBFBDBFB50C4605460078400692
:1030700004D4009402A8B0224F2303E0009402A8D5
:103080000C220D23294600F00AF8002028560028BB
:1030900004D402A829462246FFF772FFBFBDB0B58F
:1030A0005B1E0371D3084370072422400270C95C81
:1030B000551C0570D140C90700D00824C4700021F8
:1030C000CD43A540EC438470072A03D1002202704F
:1030D0005A1C42700498C02904D00022D2434250A6
:1030E000091DF8E7B0BDFEB500910023C55601AC3F
:1030F0002580467803277743AD007F19FF1CBF0862
:10310000E78077007F19BF1CBF08A7807519AD1C29
:10311000AD086580803A811CFF2B14D87F2B1446A4
:1031200000D8009CE4189D084E5D0025042D08D0B1
:10313000B7077F0F01A8C05D60556D1CF0B286080F
:10314000F4E71B1DE8E7FEBDF0B586B00591074624
:10315000DD4B1879411E15463C46022933D28320A7
:103160004000185C002860D050001E46181800214E
:10317000C1808C49CF4B595C0491022905D191083B
:1031800018230B401107490F5D18C84A1168E94020
:10319000C90700D1A1E00397801DD1889288B57836
:1031A000059B1E1D002C00D196E0B378AB4207D3DF
:1031B000337877783F02FF18974201D38F427AD94C
:1031C000641E761DEEE700282BD17648B949095CCC
:1031D000022900D982E0B54E307A00287ED00397CC
:1031E0000491022905D19008182101401007400FD1
:1031F0000D1801220292AA4031681140F288B58868
:103200000598071D002C67D03B7878780002C3181A
:10321000AB4203D3934201D8002949D1641E7F1DDC
:10322000F0E76048A349095C58E05E48A149095CA1
:10323000022907D190080B46182101401007400FC2
:103240000D18194699480068E840C00746D050005C
:103250009D4A1018C088029000280397049101D05D
:10326000D01C00E0901C0078118801918F49CF8814
:103270008988059A121DC0B20097002C2CD0937833
:10328000834212D3137856783602F6188E420CD346
:10329000BE420AD82F46029D731B00D2AB1B9BB2C5
:1032A000019DAB423D46009F07D8641E521DE4E7D6
:1032B0000298707310E007800EE00720284001217B
:1032C0000A468240E808804B18182123DB00C45CC2
:1032D0001443C45475484173039F049902290DD8BF
:1032E000002F0BD00599087949790902081881083F
:1032F0006E48427A8A4201D90121C17306B0F0BDFD
:1033000010B56A49487A002810D0C87B002804D03C
:10331000234800220A54CA7306E021480A5C0023AD
:103320000B54CB73002A01D0042400E0002466482B
:103330000079022817D0012812D0002818D10A7A63
:103340000120002A29D0174A5A4B9A5C022A24D815
:10335000487B00280ED0144800220A544A7310E01B
:10336000FDF76CFC19E0FDF769FC0443012014E053
:10337000204610BD0C4A8B5C002088544873002BFB
:1033800006D00A7A087B904204D2401C087301E000
:1033900008730A7A811A48424841204310BDC0464A
:1033A0000F0000012B6200000D000001F0B586B097
:1033B000019102903D4E0025F573B5813C493D4891
:1033C000415C31723C4A825AB2803C4BC35AF38012
:1033D000012400942406039434192172A280E57319
:1033E000A581E380364944183648374908180590C6
:1033F0002120C0000F1828462B46202D15D002464C
:10340000184600233B70267821790494059C23708C
:1034100003461046A9400843AE403343641C05945C
:10342000049C641C7F1C0835E7E72849264F009A56
:103430007A54039E1D4CA051832040003A542360CF
:1034400023483818B91D8022002A06D000230B809B
:103450000380801C891C521EF6E70198002801D0C9
:10346000007800E00020029B1A4960546072002B33
:1034700009D09878B870DA78FA701C883C8059794D
:1034800079711D7909E008217971134878807D20D0
:1034900004013C8006220A200025BC533D71BB1963
:1034A0005971DA7098701D7106B0F0BD983901003D
:1034B000BE63000044400100BA630000BC6300002A
:1034C000C0630000080100018C3801000601000102
:1034D00006000001090000010A060000F0B587B0EF
:1034E000039300920C224243284810180690284C5F
:1034F0001419480016210290081A01900B21C843A4
:1035000005900020102831D0012104908140059EB3
:103510000B3600250398202D0BD0425B114202D0C0
:10352000059A0B3202E00322AA40D2431640AD1C9A
:10353000F1E731460198C140164A11400298864091
:103540001640059D002D0AD006984219D7686019CB
:10355000C3683740D7600B40C3602D1DF2E7069863
:103560000C3006900C340498401CCBE700200A492C
:10357000009B042808D01A46C240D20701D100227D
:103580000A60091D401CF4E707B0F0BD00000640CA
:1035900000000740FFFF3F00B000024008480169FB
:1035A000002900D07047016A0029FBD1016B002976
:1035B000F8D1016C0029F5D1002101607047C046A7
:1035C00000010040931B002E693B4545BB4C8D52CA
:1035D0003457015B295ED3601B631365CB664F686C
:1035E000A669D96A47002302F105FA0A881026164F
:1035F000941BB5207D25EA29002EC5313E35733850
:103600006A3B283EFF00010000FF0001F42ACD9331
:103610003E419C171D0A3A06E1036D028401F50044
:1036200099006600410029001C0012000B000700F1
:103630000200010000000000000000000000942BC8
:10364000EC94DA341B061A0137000B00020000006C
:10365000000000000000000000000000000000006A
:10366000000000000000000000000000000000005A
:1036700000BB020100035D42F900DA00000333429F
:10368000C101A20100001700F900DA0002035D4247
:10369000F900DA0002001700F900400003035D4260
:1036A000F900DA0003001700F900400005035D424D
:0C36B000F900DA0005001700F9004000E6
:04000005000100C135
:00000001FF
