:020000040001F9
:1000000000C00100C1000100ED120000F11200006B
:10001000F5120000F9120000FD12000001130000AB
:10002000051300000000000000000000091300009C
:100030000D13000000000000111300001513000054
:10004000EB120000EB12000085020100210201000A
:100050007501010069140000EB120000AD140000EE
:1000600055010100EB1200000D1500003F020100D8
:1000700049020100530201005D0201006702010014
:10008000710201007B020100910101002D140000AA
:100090002D1400002D140000CD1300000D140000DD
:1000A000843601000348854600F03CF800480047CC
:1000B000A109010000C001000000000000000000D4
:1000C00072B615481549016000F004F8FFF7EAFF21
:1000D00000F066FC02461160121D9545FBD1704789
:1000E0006B46F0B469460E4A1047FEE7F220F7E788
:1000F000F320F5E7F420F3E7F520F1E7F620EFE74A
:10010000F720EDE7F820EBE7FB20E9E7FC20E7E745
:10011000FE20E5E7FF20E3E700BC0100EDA5CEDE11
:10012000E50D00001CB509480090094801900546FE
:100130000126009C05E0E36807CC33430C3C98475C
:100140001034AC42F7D3FFF7B1FF0000D036010006
:10015000D036010010B5F3F715FF0446F1F7B7F9F3
:10016000A00106D501204006F3F7EAFE40BF20BFFC
:1001700020BF10BD80B5012080070068002801D095
:1001800030BFFDE700F078FBF0F7F4F880BD000029
:1001900070B51D48B34D28181C490E68F4F784FA51
:1001A000F4F7EAF9002E2CD104461948295C0429F9
:1001B00001D8082000E00C20022900D802201549AF
:1001C0006956491C814201DB02F0E4FB12482C54C1
:1001D000E00703D001200005F3F7E4FEA00703D5F4
:1001E00001204005F3F7DEFE0C480168890605D5BD
:1001F0002021016001208005F3F7D4FE2020F3F7D1
:10020000D9FE40BF70BDC046AE630000140002407E
:100210002B62000029620000AA630000A8030140CD
:1002200080B50320F4F7E0F903F0C2F9F3F77AFDA3
:1002300002F0B0FBF3F79EFDF1F7C2FF80BD80B581
:10024000002002F083F880BD80B5012002F07EF826
:1002500080BD80B5022002F079F880BD80B5032012
:1002600002F074F880BD80B5042002F06FF880BD04
:1002700080B5052002F06AF880BD80B5062002F046
:1002800065F880BD034801680622914308224A4070
:10029000026070479C030140F0B58BB00493069157
:1002A0001146E52A019001D9082002E0812902D9EE
:1002B0000420059005E04F2901D8012200E0022228
:1002C0000592002215460792099217460892144695
:1002D000134603919BB28B421BD20698C65C002E3C
:1002E00014D09E0004988659002009998919099113
:1002F00047415E43089989190891039944419A1826
:100300001846584345190798401C079005981B1834
:10031000E0E70595069252485249085C801E02901B
:1003200000218BB2029898421CDD9B000498C358B0
:1003300003980E18B6B2304658430022089D2D1877
:10034000089554410998C01809905741069880199A
:1003500006907643059830180590491C0798401C74
:100360000790DEE7059EF317099839463246F0F705
:10037000D9FF03900D460698C317024606900898C9
:1003800021460293F0F7CEFF039A101A8D41EA1727
:100390000395294651405040801A9141079A56438F
:1003A000069A5243B61AC20F0A431AD0E20F00232C
:1003B000089DAA185C415208E50752190892FA0FE5
:1003C000099DAA185F415208FB07D21809924008FC
:1003D000CA078018F20FB218561064107F1049082F
:1003E000E1E70399002900D540420799002929D067
:1003F000002E27D00AAA3146F3F780FD0199086044
:10040000079AD31708982146F0F78CFF04460D464B
:1004100009983946069A029BF0F784FF201A8D410D
:10042000010E2A02511800020122520396420FDBEC
:10043000CA0F002380184B414008D90740185910B3
:100440007608F1E70498006801990860002004E04C
:100450000AAA3146F3F752FD019948600BB0F0BD8E
:100460004962000044400100F0B59FB00993119229
:10047000039107901926B0010C9025A88078C0063A
:10048000002100280E9131D40A9612A8421C0F9226
:10049000024609320D92024622320B92123010901F
:1004A00000270E97142F20D00798C0198379002BAE
:1004B00019D00E9A04794679360234190C9D6E1CB7
:1004C000B44210D2D6B20D9DAB5501230F9DAB5552
:1004D0007300109DEC52C479007A000200190B9C45
:1004E000E052521C0E927F1DDCE70A9E249B12A84C
:1004F000123010900E98C0B242000D910C9C8A42AE
:1005000008D012A84018408AA04201D201200D90C4
:10051000891CF4E70998047812A8411C029101464D
:1005200009310F91039A11460B31019122300A9043
:100530001046603000904A3230010B904B20000191
:1005400011990893034604900392002C0E98C6B2AA
:100550002AD00D460F787800105A0D99090601D05F
:1005600098421DD30B9988421AD306940121059114
:100570000843740010990853B8000099085800F017
:100580004DF9049B039A0A990853029805998155DD
:10059000069C0198C05D0F9988550E98401C0E90DE
:1005A0002946691C641ED0E700201221794B0746BA
:1005B00006900E900D90059086422CD0354612AADA
:1005C000525AD418A4B20B9EA136B4420AD23B466A
:1005D000C7B20E9E761CF4B2022C05D00E960D9773
:1005E0002E4613E02E4613E00D9B5B00109CE35A51
:1005F00002240E949A422E4606D9049CA34244D368
:100600000C9CA24246D81D46069205971F46614B98
:10061000891C401CD0E70E98C0B20228089B3ED12E
:100620003C460698C71B14DD0B98B84237D00B9890
:10063000C11BE003584A801800252A46F3F75EFCE8
:10064000089B02990D9A8D547843C117490C4018A4
:1006500012E00B98391822D00698C0034E4A801831
:1006600000252A46F3F74AFC089B02990D9A8D54FF
:100670004743F817400C3818C00B001901210143FB
:1006800005984000109A115209E012A9081800219B
:10069000417003E0002002990D9A8854089B0021C4
:1006A0000C46119A8E4209D012A8401840780028B2
:1006B00002D0E0B21154641C491CF3E7012120462A
:1006C0000C9400291CD00D90C3B200200E9001277D
:1006D0009F420FD21199C85D0F9A155CC9194C1E23
:1006E0002678925D954203D920700E7001200E90FD
:1006F0007F1CEDE70D98401E089B0C9C0E99E0E7CF
:10070000E1B2994200D319460998017001220846C6
:10071000002A1ED00C90C0B20E9000200D90012334
:100720000E98834211D21199CF5C7800109A155A15
:10073000C818461E34786100515A8D4203D2377072
:10074000047001200D905B1CEAE70C98401E0D9A86
:10075000DEE70798C01D0021119C099A127891428A
:1007600016D2625C5200109B9A5AC31E1A70120A6B
:100770005A70625C52000A9B9A5A0270120A4270C6
:10078000625C0F9B9A5C431E1A70401D491CE4E793
:100790001FB0F0BDA0FBFFFF0000A8FD012200215B
:1007A000930605D0024200D0491C1206D20DF7E78D
:1007B000C8B27047F8B50C4605461648417802782D
:1007C00091420ED2002D0CD4072D0AD8002C08D44B
:1007D000072C06D8EBB201229A4083681E5D324294
:1007E00000D0F8BD47683F5D3A42FAD016431E5527
:1007F000491C41700026084F082EF2D0B85D401900
:1008000040B2B9194978091949B2FFF7D3FFB61CAC
:10081000F2E7C046F839010018360100002807D475
:10082000C10B08D0C10D05D1010A4448084302E0BC
:10083000002000E0014880B27047C046FFFF000082
:1008400070B55200049CA218128A04461D46002D61
:1008500005D00E882680891CA41C6D1EF7E7590060
:100860000818801E192B06D201885143C90B4180FC
:10087000801C5B1CF6E770BD10B586B02748006889
:10088000274A284988540020182804D06A460023A3
:100890001350001DF8E76846A9228280224A02818F
:1008A00059228281214A9208214B1A434280214ACF
:1008B0008A1892081A43C280012293031EA212884A
:1008C0009408E21842821D4AA418C4821C4C0C19D8
:1008D000A4B2A408E31843811A4B1B4CE3189B00F5
:1008E0000C3309241C4304239C4304800988174BC0
:1008F000C91889B289088918C1811549154A511842
:1009000089000C310C2291430A46093202820A31D5
:1009100081820621EFF770FC06B010BD880301400C
:10092000CA63000044400100C90500000000010046
:1009300000C0FFFF24620000803801000080FFFF3C
:100940005C62000000000000D03600009C660000E1
:10095000780100000000000005281BD878440079C9
:1009600040008744041714020207C80610E0480735
:1009700010D111E0094A4A4301208303D218D20B57
:100980002F23DB4353435918052903D27047080727
:10099000400F01D00020704701207047AB020000DB
:1009A00082B00127380660490A1872B60A60DA4E2A
:1009B00030183060F0F7EEFD5C485D4931505D481D
:1009C0005D4931505D485E4931505E4C5E48305162
:1009D0005E48456DB807006800281CD0F3F7D2FACE
:1009E0000028FBD5A806800F0BD0F1F7C9FE5848A8
:1009F0000021817357497018326851181C22F0F792
:100A0000A9FCF1F755FC5448102101604120400633
:100A1000F3F796FA80E02C460025EE433046F3F7D4
:100A20008FFA00963046BC4EF3F796FA28200194D0
:100A3000044228D047483418F1F79CFDE5816583CE
:100A4000BB2060801020424C172803D02554E57548
:100A5000401CF9E725774148A061642040492A46B7
:100A60002B4601F06BFF2846294602F0A9FC1D2009
:100A70005F2802D02554401CFAE701F089FE39486E
:100A80000F213154A573A348305C01F0CBFE01F077
:100A900039FF354800990160416001F0F1F83348B1
:100AA000305C2A4C2060F807F3F77CFAF3F772FA0F
:100AB0000028FBD467650198C00702D1F3F7BAFAA2
:100AC00010E02B48315A7D20C00048432949F3F7F4
:100AD00097FAF3F701FD2848F3F76CFA05200003B5
:100AE000F3F760FAF1F7D0FB1025194F172D0CD052
:100AF000284610387A5DC4B20021204600F0CCFFB1
:100B0000204601F023FC6D1CF0E701200221C222E7
:100B10000023EFF7BDFE0B4C3059804740BF62B653
:100B200001F05EFBFCE7C046004001005862000097
:100B3000A117010054620000490E0100506200003C
:100B40008D1A00004C620000451B00008803014024
:100B5000983901003062000000E100E000000F0F52
:100B60004A0200004862000010000440CA6300000E
:100B700024630000B80B000010510000FEB50C46C5
:100B8000204988423CD8089F032F029001920DD043
:100B9000022F06D0002F0BD11846FFF7FFFD830070
:100BA00007E01846FFF7FAFD034602E0022300E0E3
:100BB000012315489E490D5AE120C600002D0AD098
:100BC000099938461F46FFF7C7FE99493B4600285A
:100BD00001D0280107E00D48085A002801D0000183
:100BE00001E03046C830019A0A21891ADAB254432A
:100BF000CC40444302984643A64201D80020FEBDA3
:100C00000120FEBD40420F00326200003E62000043
:100C100010B50024E0B2072803D201F097FB641C52
:100C2000F8E710BDC8400AD00649814A515C090660
:100C300001D4401E04E0012801D0801E00E0002005
:100C4000C0B2704756630000F0B587B03348017AF0
:100C5000012000295CD02F4A7549895C022957D8A8
:100C600000270397029703200190C0432C4E2D4983
:100C700000280CD03218535C57544324A400155D4F
:100C8000175505AA121813711572401CF0E7264D6E
:100C900002A8A86005A868606F7070790F2800D35B
:100CA0000F202870082F14D00024082C0FD001200A
:100CB000A0406968C95D084207D0A968C95D0842BB
:100CC00003D160B279B2FFF775FD641CEDE77F1CBC
:100CD000E8E770796978884205D900220F4B1A73CA
:100CE000197A019807E00D4B197A1A7B8A4201980C
:100CF00001D2521C1A738A4203D1002119730122B6
:100D000001E00022104609497254832149007254BF
:100D100007B0F0BD2B62000044400100983901008B
:100D20008C3801000C010001F839010006010001B6
:100D3000F0B585B002933D4C3D4B1B5D5B1E3D4CB9
:100D4000032B01D29B00E4188D008A18521CD3B2E9
:100D50000A9A934200D313460392226800924619DE
:100D6000049042590C9801900B9D084699420BD271
:100D700080CE97420C4600D80446974200D81746CA
:100D8000491C3A462046F1E7002D00D02870C7B232
:100D90000021002F039846D0874244D2B90004981E
:100DA00040184568001F0668701BC2175040AE42CD
:100DB000334600DB2B46821A04984058C11A100CA7
:100DC00002D049105208FAE7002905D0D0030022CA
:100DD000F3F794F8401000E01748AE4200DB4042C1
:100DE000010A7E220A40009DA95A144B04461C4069
:100DF0001B1B5B1C4B43A91849886143C918490A4E
:100E0000FA0382180E48104008430199002900D0C7
:100E10000860001202994143C81709138143094829
:100E2000814200D3014688B205B0F0BD45620000A2
:100E300044400100F4A60100FF3F0000FF01000054
:100E40000080FFFFFFFF0000F0B5FFB08CB00E92F6
:100E50001E9107468000FA4D2818FA49405808901C
:100E6000F94828181D90007D1190F848285C0A90D8
:100E700025A800240470F648285C0690F548295CF3
:100E800007267B00F448027A07920129229609D8A6
:100E9000BA02AA18101D20900325182004222192BE
:100EA000022208E03A02AA18101D209070200822A1
:100EB0002192032235461D9EB67D2396E64EB67AD4
:100EC00024973D4003402B4306989040219A1040C0
:100ED0001843069001F02EFA129001239807079903
:100EE0000029109606D0002E32460DD0DA4E361D5F
:100EF000229D0BE0016800290DD0D1490968D74A2D
:100F00008E18D74A89580BE0229DD34E511E8A4134
:100F100051000F9108E0D149C94A5618D04951589B
:100F20000905890F0F91229D3168049100680028FE
:100F30001B9307D0C2480068CA49405C0D90F3F784
:100F400021F805E0C748BE49085C0D90F3F722F888
:100F500005900A9828400A90BF48C67A0425182DA3
:100F600006D01E9840190521F0F70DFA6D1DF6E721
:100F7000B34A209B1B99119DA54203D047A8015558
:100F8000641CF9E70C022846A04205D247A90022BA
:100F90000A54AB4A401CF7E7002E00D105960F9883
:100FA000239DC5401D9881881391417D1591077D32
:100FB000407E192109010C91A842179420D21D6886
:100FC00003211C91411ECBB2012B00D801231C9898
:100FD00068431C901D9AD47D907DD27C0F9E022E7A
:100FE000149705D00526049F7E43360AB5420AD9D8
:100FF00047AD002B0CD000262E706D1C5B1EF8E751
:10100000002021909AE047ADEB185B1E00251D7073
:101010001C9B1B191A930F9BD8405243CDB2012D34
:1010200000D801251A9951431A91EB03A900209A7F
:1010300089180F1F25A90A464A3216920A464032DD
:101040000B924A1C099218311891C01CC0B2199019
:10105000002021907A4A1998854269D2229347A8A4
:1010600000242395445560CF083F1F97BF681C9804
:10107000281A8019C019C117884321460246234601
:10108000F0F750F91A9A801AA14117D3AE426C4A70
:1010900015D9BE42209812D315990029149B239D7F
:1010A000229E1F9F14D088A9009301940291E9B257
:1010B0002246139BFFF73CFE614A0BE0604A239DEA
:1010C000229E1F9F68488019431C3F1D6D1CC2E76C
:1010D000889628466549515C002916D16449515CBF
:1010E000002901D00C99401880B21299411A614828
:1010F0008142084600D35F480029214600D40146BA
:101100005D48105A081A00D22046219B092BD9D8D5
:101110000121099AD1549900889A189C6250484A32
:101120000B99CD545900169C60525B1C2193C9E762
:101130001D9881881391417D1591077D25A8014651
:1011400040311691014618311A91411C18914A30CC
:101150002390BC1E00251497042D00D190E00C2094
:1011600024994843101840194449465CB44264DB52
:10117000B000209A11581018021F1268914202D92B
:10118000426891420AD2761CB200209B9A588A4249
:1011900002D98068824201D2294A4EE0159800287F
:1011A000F1B20AD088A800220097019202902098FC
:1011B000139BFFF7BDFD014601E0C8038890204A5C
:1011C0002A48105C002819D12948105C002801D059
:1011D0000C98091888B21299421A26488242114680
:1011E00000D324490020002A024600D40A461449AC
:1011F000214BC95A511A00D20146114A2198092897
:101200001BD8401C239A401E06D0931C8FB2128814
:10121000BA421A46F7D10EE0219B1B98189AD05477
:101220009800889A1A9F3A501698C6545800239AE4
:1012300011525B1C2193024A149F6D1C8CE7C0461F
:101240004440010004400000306200002C620000B5
:101250002A6200002B620000803801004C6300000D
:101260005463000066630000FF7F000042620000DC
:101270004A620000FFFF0000246200000C410000F1
:1012800025A8219901700C20249948438018EC4925
:1012900040180326F543294600290CD0421812793C
:1012A00047AC0023A354FC2A03D847AC121993700F
:1012B0005370491CF0E7149688A847A9119C224650
:1012C000209F3B46FEF7E8FFDE48DF4E305C011909
:1012D000899A13925143CA17120E89180912889AD3
:1012E00012928C18E1178C43691C614380003A58B4
:1012F0003818031F1B68D218406810184018C1170F
:101300008843FFF78BFA1E998870000AC870CF488F
:101310003056002803D42046FFF780FA04E0CC4979
:101320000898884200D30846219A189B1E99087095
:10133000000A4870002688961D9841890991047D0D
:10134000611E0C91808900B2089025A801460B31DE
:1013500022916030159024961194964200D1EFE0CE
:10136000985D00287ED0B1001A981C914058C10B9E
:10137000C9B2139A5143CA17120E89180912129A48
:101380008D18E9178D431B99401A012400281F96D8
:1013900008D4FC49491C884204D3A1034118C90B55
:1013A000152976D3149845432846A84200DC2846E0
:1013B00019951699895D119A8A4200D80C99C9B27B
:1013C0008900209B5E18321F12685B5876680128DE
:1013D000014600D82146101AC01887191D98C088E8
:1013E00087423ADDF81787431D98C07D0D18E34802
:1013F000E749405C06466E43464300243846214692
:101400003A462346EFF78EFF301A2046884124D211
:101410001B971A981C9940180B906F1C2A46781E2F
:10142000844221D0249438194508002628463146A4
:1014300014462A463346EFF775FF2246201A3046F7
:10144000884100D20126002E2846249C00D138462F
:10145000002E00D12C460746E1E70020189B1F9E76
:101460009855219A761C78E7002CCA4D1B9E05D012
:1014700088AA30462146F3F7CFF8054615981C99FF
:1014800046502846F0F708F9FF281F9E2CD9FF2068
:101490002DE0BC4A10404900BC4A51184A888B884C
:1014A0009B18CE889B194243D20B9A1A0989414353
:1014B000C80B10180021249A0B46EFF733FF0904DC
:1014C000000C4018099A002A07D0C11712B2D3178E
:1014D000EFF728FFC905400A4018089940181499E9
:1014E0004D4340191F9E60E72846F0F7D5F80B9A48
:1014F000229988551568E80BC1B28800209C2018F5
:101500002A46A04B1A40491C9F4B43339A421B95D5
:1015100006D2890061180268001F0068121805E0F1
:101520008900615802688A1808300146199B0868CA
:101530008018C01A2490189B93D20020249090E722
:1015400025A81C304C210023944A1C465B1C219D7D
:10155000AB421AD225AD2D19AD78002D12D025AD94
:101560002C196578002D0DD025AD6D5AAF26F600EB
:10157000B54207D80568061F3668AD1B954201DCE9
:1015800000256570891C001DDFE70F98002802D038
:101590001798543000E078201790D949049C219A7C
:1015A0007D48085C002801D0800017907448085CD2
:1015B0002490002660274A252096B24221D025A8F3
:1015C00080194078002818D025A8405B17998142DF
:1015D0000DD925A8C059249900910E990191214651
:1015E0000F9A0D9BFFF7CAFA219A002805D0209B7D
:1015F000D8B288A90E545B1C2093AD1C3F1D761CED
:10160000DBE701212098002924D02190C2B20023D9
:1016100024935D1C95420FD288ACE65C2299885DCC
:10162000E7187C78095D814204D988A8C4547E708B
:10163000012024902B46ECE72198401E2499E2E7F4
:101640000441000049620000444001002C62000097
:10165000FFFF00002098C7B20A98874200D30A9F74
:1016600087A80770012138461F97239A00291ED0AA
:101670002090C0B22490002321935C1C24988442C3
:1016800010D288AEF55C6F00D05BF61877787900E1
:10169000515A814204D288A8C75475700120219004
:1016A0002346EAE72098401E1F9F2199DEE707980E
:1016B0000028109A1AD0002A18D0DE48F34C205C7B
:1016C000F0F74AFEDC49635C10301E9C21460E9AFE
:1016D00000F0BEFD0A9800900598019025A988AAFF
:1016E00087AB2046FEF7C0FE109A3AE01E98C41D54
:1016F00088AE002F18D0357868002399085AE11E6B
:101700000870000A4870A80015990858FFF786F875
:10171000109A2070000A60702298405D611E087067
:10172000761C641D7F1EE4E70798002810D10F98EF
:1017300002281F9912D10598C00216D50424182C2E
:1017400008D01E9800190521EFF71DFE641DF6E76D
:101750001F9903E087A800210170109A07980028BC
:1017600003D0012A06D187A8017808461E99069A57
:1017700001F0F4FC7FB00CB0F0BDC0464440010065
:101780002B620000FF7F000004410000A83A010026
:1017900043620000C0C62D004B62000065260100B8
:1017A000F0B58BB00AA800210891017001200590C6
:1017B000040652480557B448B4490818417D80884A
:1017C0000490069102290DD1514E00964E48514980
:1017D00004272A463B46FFF733F800964A4800198B
:1017E0004C490CE0474E00964748484903272A4693
:1017F0003B46FFF725F800964348001943492A461F
:101800003B46FFF71DF84448F04C20180990434828
:1018100027182F20C64308990A460D46059B002E1F
:101820002DD03868002823D0079515460891E74940
:101830003B480A5C9000081880193A49415C0698B8
:1018400000280ED0002002900AAC019440200090A5
:101850000998049BFFF76CFA059B2A462A18207802
:1018600002E02A466A181046079D45190899491C46
:101870001802099C241809943F1D0C36CFE7C8B202
:10188000401E032826D8F94C78440079400087444C
:101890000119051224482252E8B220E023484243AD
:1018A00019035218530B204AA352AAB242435018AC
:1018B0001A46400B0CE0901C82081B482252A81CC0
:1018C000800805E0501C420817482252681C400856
:1018D000C0B204E014480022EF4C225210461449D2
:1018E000625223685A52134A9918022801D33F289A
:1018F00000D30220A05408700BB0F0BDA63A01003E
:1019000044400100F8350100A83A010052360100B8
:10191000D8350100203601005C6200005C660000E2
:10192000AD6600009C660000A8660000AB0A0000DF
:101930002462000049620000F0B589B0CA4ED64C5E
:10194000A05DF1F7BCF9054636482156A05DF1F7D8
:10195000B9F8354FE25B6B08824248D20190A05D36
:10196000012801D80F2500E03F25154001218907F6
:101970000968002902931AD03F21C943012800D8E1
:101980003031CF18012A03D1F1F71CFB2648225A27
:10199000B8B2401C90420AD12448017A002902D0F2
:1019A000807A012803D1F1F7BBFA1F48225A1D485B
:1019B0002156A05DF0F76BF806461D48235803AF8B
:1019C00028463946324698471A48205CF0F7C4FC4E
:1019D0001949635C103039463246F0F783FC124FE8
:1019E000E05B401CE05340BFE25B029B0198002893
:1019F0000BD0824209D10125A8031E46F2F7D2FA84
:101A0000E802F2F795FA3346E25B9A4208D30125E1
:101A10002803F2F78DFA6802F2F7C4FA0020E053C7
:101A200009B0F0BD2A620000266200008038010083
:101A300054620000286200002C62000070B5124A57
:101A4000BB4B9C18124D8D40A5801A68114BD55286
:101A5000002901D0782600E028262681D518AE80FE
:101A6000002901D0502200E01922A275AA74002991
:101A700001D0012200E0022262756A74FFF7D2F8F9
:101A80002075287470BDC0463062000044400100DB
:101A9000420F000034620000F0B587B01346914257
:101AA00056D0164605460B301F22024001273C4601
:101AB000944042480694046004973846A8400722A0
:101AC0001640BFF34F8FBFF36F8F3D4FC4B2042E4C
:101AD00002D23868A0433860E0433A6A02403A6272
:101AE0003A460594FC613748069C0460012913D1ED
:101AF000022003951D46F2F777FD01F059FD3248AB
:101B0000D8490818F2F7D0FD3A462B46039D3048D5
:101B10000168049CA1430160701E062818D8C046C5
:101B200078440079400087441603030E0B0E0B0027
:101B3000106A05990843106226480699016007E07B
:101B40000599516301E00599D1621068084310605E
:101B5000184607B0F0BD464FC24CE05B0290022031
:101B60001D490A460393F2F72DFDF2F725FDE05BD0
:101B70007F26F24301921040E053E019F2F76AFD2C
:101B800011482018F2F7A2FD02993140E05B019A5A
:101B900010404018E0530E480168049A1143016058
:101BA000284600F0D3FB039B054A106A05990843B9
:101BB0001062084806990160CAE7C04680E100E06B
:101BC0000400044080E200E0AE63000044400100F5
:101BD0000010004000E100E0A0860100FEB51C46B8
:101BE000154601919E49EA4F78543A685054EE4B9D
:101BF000F8580322029212059043795C022900D31F
:101C0000022109050143F9507F263540F1F770F9AB
:101C10001748395A72020A4001998907C90D5118AB
:101C2000491939521348044013483958134A0A4095
:101C30001119089A9205120B89183950DA4BF85885
:101C40000F21890288430999029A11400A038018DA
:101C50008A028018F850002901D0142000E01920D1
:101C6000D2490870FEBDC0462B620000444001000E
:101C70005C630000FF030000506300000000F0FF01
:101C8000C948C34908580005800F01D0142000E05E
:101C90001920C64908707047444001007CB50446CD
:101CA0008388827841780078E588E6780095019607
:101CB000FFF794FFE178E088FFF7C0FE7CBD0000ED
:101CC000F8B572B6194DB24E705D80072BD5194824
:101CD0000068C00727D0F2F78DF9002823D13068BB
:101CE0001549405C02281ED11448006800281AD10A
:101CF000F2F748F9044651200702F2F74BF9BC42CB
:101D000011D10521090388420DD1705DC00703D1AF
:101D100001204006F2F746F9FEF7AEFD715D0420A2
:101D20000840EEF733FB62B6F8BDC0462D620000F6
:101D30004440010050010040AB6600003004004008
:101D4000F8B50C4600904648914F395C944D286890
:101D500001F038F806466868434978501620214655
:101D6000F0F7E6F961684A228E54310A62684B2323
:101D7000D154297A62684C23D1543C4979188A7E1F
:101D800063685F269A55CA7E6368A0269A55CA7B07
:101D90006368A3269A558A7B6368A2269A55CA78F7
:101DA0006368A5269A5589786268A423D154802255
:101DB0009B49872A06D08B18803B1B786668B354F2
:101DC000521CF6E76268CB79872693550A7A6368D6
:101DD00070269A554A7A636871269A558A7A63689A
:101DE00072269A55C97A62687323D15420490A88A9
:101DF000130A6668B127F3556368B0269A5562687E
:101E00008B78B22693556268CB78B3269355626877
:101E10004B79B4269355626809796D23D154616872
:101E2000144A527A6E23CA546168EA7A4D23CA541E
:101E3000E649E24A515C62687423D15461680E4AF3
:101E400012787823CA54002803D161682022009BAD
:101E50008B546168E14A12689023CA54F8BDC046A9
:101E60002B620000444001004C630000306200001F
:101E70008C38010098390100A43A0100FEB54348AE
:101E800020250560BFF34F8FBFF36F8FEE48EF4EF5
:101E90000027375401A8EEF7CDFC0198047A3D489D
:101EA00005602046103808250F2814D920464038F0
:101EB000092822D2E0003849401838494018FFF775
:101EC000EDFE01A92046FFF73BFF054620462946C7
:101ED000F1F7C2FAFEBDC04678440079400087445D
:101EE000310807072B271B1E42070707070723197F
:101EF000ECE701A8F0F7BEF8E7E7204680380328B2
:101F000004D201A92046EFF705FDFEBDFF2CDDD16F
:101F10000D25DBE7F84308E0162001A9D3E71720D9
:101F200001A9F0F705F9D0E7012000F04DF8CCE762
:101F300001A800F07BF8C8E701A800F077F8054693
:101F40000028C3D11648007A00F0B8FC01A8F0F7C9
:101F500091F8144806210160134830580005800F9D
:101F60000AD0142009E0182001A9F0F7E1F802983E
:101F700000F01EF83D46A9E719200C490870F0F75B
:101F8000F7F80546FEF744FEA0E7C04680E100E012
:101F90004440010000E100E08836010000FEFFFF40
:101FA000803801008403014054630000A53A010019
:101FB00022300021844A422904D053185B7B4354C9
:101FC000491CF8E700207047F8B57F490A7B53B2F7
:101FD000C318144C25682D066468E407240A6419A4
:101FE000E4151D1901231E02AD196D0A16D1DE0775
:101FF0000D4B1F683D46354004D11C6034431C60C6
:102000002746354612180A73F905C91508182843DA
:1020100018600120F2F77EFB0020F8BD0E20F8BD0D
:10202000A83901001800014030100140F0B58BB014
:10203000054600682021415C0A46403A04462034A7
:10204000092A00D3A0E006945D49E34C6618F1F735
:1020500013FA03900795286803464A335D7DB576E9
:102060002468584967183D76A025455DF5767D764C
:102070000546A035EA781202F281A9785118F1815B
:10208000B9816979090271802A79891871804D4A6C
:10209000A1520146243149782422825C0902891820
:1020A00089B25A784A25405D1202101880B29A7897
:1020B000DB7800F043FC8025C44F872D0ED02846E6
:1020C00080387C19803C2178079A1268565DC0B22E
:1020D0003246FFF7E1FC26706D1CEEE707980568B5
:1020E00028466D30817EF971C17805913972017988
:1020F000049179724379BB728279FA722F46B037B4
:102100007978B026AE5D0902891909AE3180B978B7
:10211000B170F978F170397971716D21695C317143
:10212000C0792A49AC4C605425686854224D605DE2
:1021300027496118009201910599049A00F0C0F8AE
:10214000605D00F06FFB2448205A002807D1214829
:10215000205C002803D00226069C079D0AE0079D0C
:1021600028686E21405C08A9087009A801F028F9C8
:10217000069C039E28689021405C18490860002056
:10218000207030460BB0F0BD182906D0172908D0B2
:10219000162900D157E70926F1E700F025FE0026B1
:1021A000EDE7F1F775FB064600F0F2FA0248F44954
:1021B000085C00F037FBE2E72B62000044400100BE
:1021C0003062000032620000A8390100486200005D
:1021D00026630000BE63000024630000800301400A
:1021E000B0B5184CA07B401CA07300F04BFA032044
:1021F000C502F1F7C7FE2840A84201D1FFF79CFBBA
:10220000012080070068002804D0A17B1B2000F07B
:10221000B9FB13E06C480068C1B2102000F0B2FBBB
:10222000A17B1A2000F0AEFB0748D549085C0028C6
:1022300002D0FFF723FE40BFFFF742FDEFF7D2FECB
:10224000B0BDC04698390100A863000044400100B9
:10225000F8B50091014607241C401D07ED0F6E00E4
:10226000F61C6643DF06FF0F9B06D80FC3195B0001
:10227000F3185343C9187A008918400008180099C8
:10228000C91D002C1AD00378CE1E00227270FE27C2
:102290001F4037704378737037704B1E86781E70FE
:1022A000002D01D1C01C06E0C3784A700B70027982
:1022B0004A700B70401D491D641EE2E7F8BD000026
:1022C000F0B5022801D30F2400E00724E51A00D25C
:1022D0000025174B022801D3184600E0FF208C424E
:1022E000264600D30E46E840B3409442214600D330
:1022F00011461840069A059B15460E46002E04D03E
:1023000000272F80AD1C761EF8E79C42254600D39F
:102310001D464B00D218A94207D81080921C491CB8
:10232000F9E700201080921C491CA142F9D9F0BDA8
:10233000FFFF0000022901D3034900E001490856CC
:102340007047C046843A0100043A0100F8B50446DB
:102350001D4805681D48075DE9B2102000F012FB1A
:1023600001263346A3401D4007203840032818D0DB
:1023700002280BD001281BD11548002D21D015496A
:10238000F14A515A7F220A40026011E01F46002D97
:102390000AD0B004F1F70EFE2120C004F1F7D0FD01
:1023A00005E01F46002DF4D03006F1F703FE3B4652
:1023B000054803620B341F20204086400748066012
:1023C000F8BD00210160F3E700000440A8390100D6
:1023D000A00301405C6300004440010080E200E093
:1023E00070B500F097FF0446012675022846F1F704
:1023F000A7FD2846F1F7B0FDF0F7ACFF35032846FE
:10240000F1F7D0FD2846F1F7D5FDE00707D07003BE
:10241000F1F7D0FDF0F718FDF003F1F7C3FDA007C9
:10242000564801D502210160610701D504210160F0
:1024300070BDC046FEB5F1F7A5FD04464507F1F7AE
:10244000A9FD002D02D5410700D58EE0E10700D09F
:1024500080E002900125AE04600307D500F01EF96C
:10246000E804F1F7A7FD3046F1F76AFD0320870481
:10247000E00107D520463840B04203D02120C004F7
:10248000F1F75EFD20040CD5E803F1F759FDE348B0
:1024900000687749405C002803D1F0F7A5FF374872
:1024A00005602E02E0031ED52804F1F749FDDB4A42
:1024B00010686F49405C002804D0F0F795FFD74AB8
:1024C0002E48056034420ED02E48105A00280AD1FA
:1024D00002200190F1F766FD0198F1F76BFDF2F72C
:1024E0006BF8F0F707FF284820401036B04204D1BF
:1024F0003046F1F725FD00F04BFB40372740402FD9
:1025000004D14020F1F71CFD00F082FBA00611D59C
:1025100060040FD5AE03029830420BD03046203015
:10252000F1F70EFD3046F1F717FD8848E049085CE9
:1025300000F0BEFA600505D5A802F1F701FD0820FC
:102540000E49086020060FD58020F1F7F9FCF0F75E
:10255000E9FEFEBDF1F7E6FB00F01CFA0420F1F7FE
:1025600021FD0120F1F7ECFCFEBD0320F2F73CF861
:1025700001F01EF8EFF724FEFEBDC04640110140F9
:10258000444001002463000010010C00F8B5F1F78D
:10259000F9FC0546F1F7FEFC0446052005420AD089
:1025A000E80707D0F1F7E6FB0420F1F7FBFC012078
:1025B000F1F7C6FCF8BD680626D52D48EF4E305C15
:1025C000002811D0A8041ED4EEF7A4FB00281AD0CE
:1025D0002848315CE848305C274A1768F0F769FB07
:1025E000874210D2F0F782FB4020F1F7A9FC234884
:1025F000305880470120C6023046F1F7DBFC3046F8
:10260000F1F7D0FC00E040BFA8052ED501267502E9
:102610002C422AD0DA48017A002909D0817A01298E
:1026200009D1174A0021815481724020FFF706FA30
:10263000FFF7D6FE19E0124946548672007A022846
:1026400001D0DA2001E0D12040000221FFF7F6F9A5
:102650002846F1F775FC2846F1F77EFC3403204646
:10266000F1F7A0FC2046F1F7A5FCF0F7EDFBF8BD73
:10267000AC6600002C62000030040040586200008C
:102680000A00000180B5012080070068002802D000
:10269000FFF77CFF80BDFFF7CDFE80BD70B5F1F781
:1026A00013FF2848B54C2018F1F7FEFF00F072F92F
:1026B000264D66572648006800283CD0002E09D4D5
:1026C000AF48017A00292ED0AB49625C042A0ED8AB
:1026D00008210DE072B6F1F755FC400705D11D4801
:1026E000F1F768FC0220F1F75DFC62B623E00C21F3
:1026F000022A00D80221022A01D8002200E0012289
:10270000D140427A002A07D0012A0CD10022002EA3
:1027100008D08E4206D006E0002E01D08E4202D1B3
:102720008E1901224272F1F7D7FE701E60552168A2
:102730004855300603D04020F1F73CFC70BD112015
:102740000001F9E7AE630000444001002962000087
:10275000140002400200000410B50C490A6802701F
:1027600000224F2A03D008C98354521CF9E70121E3
:1027700042560F231340284C23700023C0560028D4
:1027800000D4130923480370084610BD44000140DB
:10279000B0B594B000201E4C802807D000212154F1
:1027A000221801231B06D154401CF5E719480021CB
:1027B0000170194801704048E84D285C002809D094
:1027C000012000062118164A1318204600F030FB9D
:1027D00014B0B0BD6846FFF7BFFF0028F0D06846D0
:1027E000017807220A40B04BEA548906490FAD4AE6
:1027F000A954012109066218214600F049FB0D2069
:10280000AA494F28DCD06A46125C0A54401CF8E7FB
:10281000043A0100A63A0100A43A01004440010034
:10282000843A010070B594B00446BF20C043F24D15
:1028300020490246002A05D0AB180646BF365E5036
:10284000121DF7E71C48285C002801D014B070BDA9
:102850006846FFF781FF0028F8D0012C0CD86846A5
:10286000007841060ED440B200281AD4BD48291879
:10287000684600F055FBE9E7022CE7D100206946E5
:10288000085600E040B2002805D4B648291868462A
:1028900000F02EFBDAE7B3482918684600F0D4FBB5
:1028A000D4E7B0482918684600F0E7FBCEE7C046F9
:1028B000444001001C6300004B63000010B50E494A
:1028C0002F4C60542072002802D04020002108E0E4
:1028D0000A48C94908580003800D094A8958090562
:1028E000890FFFF7ABF80021A17261720120000689
:1028F00020188172417210BD080000015063000071
:102900005463000010B569490C7B0020087361B264
:1029100001290DDB00280BD10120FFF755FB641EB8
:10292000F5E7002807D10020C043FFF74DFB641CEA
:1029300061B20029F5D4C0B210BDC046F8B51C463E
:102940000D4606461046FFF7B9FF8948AA49095CBB
:102950003046F0F739FD01210906094E705030600C
:102960007718A5488249415C2846F0F72DFD78602C
:102970007060FC72F472F8BD2B62000044400100EC
:1029800080380100024A1368195452681154704784
:10299000E410000010B50020444A01460346072B0E
:1029A0000DD0D45C052C05D0042C06D101249C400C
:1029B000214302E001249C4020435B1CEFE7024AD4
:1029C0009060116010BDC0463000044070B51448DE
:1029D00004680021354A0B460D46072D0DD0565D83
:1029E000052E05D0042E06D10126AE40334302E069
:1029F0000126AE4031436D1CEFE7234203D10C406A
:102A00008C4200D170BD83630163D079012803D06B
:102A10000228F7D1C82000E06420F1F77BFE70BDEA
:102A200000000440FEB51E48D54D285C000736D591
:102A3000D24EA85D012828D8E1482C181B4FB87A3F
:102A40007A7A397AFB7A5B005B1CDBB200930194E3
:102A50004906090E5206120E4000401CC3B2022065
:102A6000FFF72EFCD5482A5CCD48295CCD48285C70
:102A7000234600F03DFDA85DBB7A7A7A397AFD7A6B
:102A800000950194FFF71CFCFEBDCC482A5CC448AD
:102A9000295CC448285CCA4BEB1800F029FDFEBD38
:102AA0002D6200004863000047630000A839010060
:102AB000FEB50446264800782649F1F78FFA2648E5
:102AC000072101604160AE4D2868254941180091F9
:102AD000B149421824494318244826462146F1F7B3
:102AE000EBF9A6482C46285C012805D823488178B4
:102AF00002AA9170224904E01E48817802AA9170CE
:102B00001D498B7801ADAB70037840780002C01886
:102B10001080087849780902081828801948017837
:102B200002A8017001AD2970174961180091174F73
:102B3000E319221D3146F1F7BFF920681249411807
:102B40000091C319021D28463146F1F7B5F9FEBDC3
:102B50008447000064470000000102404440010037
:102B60006C6600005C6200005C660000604700006C
:102B70002B620000544700005A47000057470000EE
:102B80005D470000A53A0100044100000440000038
:102B9000F8B57D497A4DFF226A5418488368184C6D
:102BA0002C5D80263340234383600368154C2C5DE5
:102BB0002F687A54334023430360EEF755FE7C4878
:102BC0002C182046F1F77CFA0F48285C2146F1F7D3
:102BD000A1FA6F482818F1F793FCF1F7CDFC0B48E8
:102BE000012101606748285C002801D0FFF7EEFE54
:102BF00000F00EF8F8BDC04644400100AC030140AF
:102C0000C9630000C863000049630000040002407B
:102C1000F0B5B5B0594B5A4EF05C042801D80822E3
:102C200000E00C22022800D802225649755C564961
:102C3000715C4C1C554F397A0029049249D0022806
:102C400001D8002300E001230395DA40E3B2002B12
:102C500003D07D7A9A4202D00FE04C4D6D7A002D60
:102C60000BD101217972002140220092019117229B
:102C7000F923FEF7B3FF039D24E09A4203D1012D0F
:102C800007D0039D24E0049E9E4273D1012D3C4E4B
:102C9000F7D100237B72A41A0229039D08D10221D7
:102CA000D1225300009301911F330321332206E008
:102CB0000221DA220092019103215D22F923FEF71D
:102CC0008DFF3F1D3868324970507018F1F718FCBD
:102CD0002A4B2D49745430684454E2B2049890420F
:102CE00043D9F05C210601D0032815D32949715C32
:102CF000294BF31800932F4605AD2B46F1F74AF800
:102D0000264832582648315C2648305C2B463D46E2
:102D1000F1F746FAFFF786FE012004406000C54047
:102D2000A80711D0FFF752FE1F48315A1F4A0A4028
:102D30006908C907890D511831523018F1F78AFC1A
:102D40001B483018F1F7C2FCA00031680818194977
:102D50000968194A81501948305C19497118F1F70E
:102D60003DF92046F1F716FC02E08020F1F722F948
:102D700035B0F0BD039D014B014EAAE72B62000068
:102D800044400100466300002962000080380100D1
:102D90004C630000666300005C620000206300007A
:102DA00048630000476300005C630000FFFD000013
:102DB000AE63000020100140A06600004A630000DE
:102DC00026630000042901D8082200E00C22022911
:102DD00000D802225043800A0249884200D30846A4
:102DE0007047C046FFFF000070B501462231002247
:102DF0000C48422A04D08B5C84186373521CF8E799
:102E000001210E06084CA5190D3021462A4600F076
:102E100074F9064A93192046294600F009F8002063
:102E200070BDC046A8390100043A0100843A01008F
:102E3000F0B585B00491039002930192002002281E
:102E400024D00090820001A9895803AB9A5800232E
:102E5000042B18D000240D46102C10D0165717192B
:102E60000120385630181026BE5780191126BE573B
:102E70008019801C800828706D1CA41CECE70831A8
:102E800020325B1CE4E70098401CD8E705B0F0BD99
:102E900080B503785B0607D40020802807D0002384
:102EA00013540B54401CF8E70D3000F026F980BD98
:102EB000F8B500920D4606460020C74303204402A1
:102EC000A74214DA3046294600F044F83F18A742DA
:102ED000F6DA1F20384001218140F817C00E38185B
:102EE00040118000009B1A588A431A50E8E7F8BD49
:102EF000BCB50C4605460078400601D50D2200E021
:102F0000162201A80221234600F036F80020285698
:102F1000002804D401A829462246FFF7C9FFBCBDFA
:102F2000BCB50C4605460078400603D401A816211E
:102F30004F2202E001A802210D22234600F01CF8D6
:102F400000202856002804D401A829462246FFF76D
:102F5000AFFFBCBD70B5037845780024394ADEB2B6
:102F6000AE4206D88E5D5B1C0370A419FF2EF6D00E
:102F7000621C90B270BDC0460170511E4170002BA2
:102F800007D00020C02804D00021C9431950001DDB
:102F9000F8E77047F0B587B00092069100210191E3
:102FA000CB4306784578C178059187780322510292
:102FB000049702918B4242DA0393019AEBB206998D
:102FC000CC5C059973180370F6B2F440DEB2082E9B
:102FD00015D3083B03706D1C4570EEB201798E422B
:102FE00003D900241E46174A0AE019060DD0069997
:102FF000895DDEB2059FBE1B049FB1400C191E46C1
:103000003C401219BC42D9D001E00026F8E7511C1F
:1030100089B2039B5B1802998B42CBDA1F211940BE
:1030200001228A40D917C90E591849118900009CFC
:1030300003936358934363500299039BBAE707B025
:10304000F0BDC046580B0000BFB50C4605460078E1
:103050000091400601D50D2300E0162302A80C22A2
:10306000294600F026F800202856002804D402A89B
:1030700029462246FFF78EFFBFBDBFB50C46054669
:103080000078400604D4009402A8B0224F2303E045
:10309000009402A80C220D23294600F00AF8002013
:1030A0002856002804D402A829462246FFF772FFBA
:1030B000BFBDB0B55B1E0371D30843700724224027
:1030C0000270C95C551C0570D140C90700D00824A6
:1030D000C4700021CD43A540EC438470072A03D17E
:1030E000002202705A1C42700498C02904D00022A9
:1030F000D2434250091DF8E7B0BDFEB50091002350
:10310000C55601AC2580467803277743AD007F196B
:10311000FF1CBF08E78077007F19BF1CBF08A7808E
:103120007519AD1CAD086580803A811CFF2B14D841
:103130007F2B144600D8009CE4189D084E5D0025A6
:10314000042D08D0B7077F0F01A8C05D60556D1C26
:10315000F0B28608F4E71B1DE8E7FEBDF0B586B0C7
:1031600005910746DD4B1879411E15463C4602295C
:1031700033D283204000185C002860D050001E46E7
:1031800018180021C1808C49CF4B595C0491022949
:1031900005D1910818230B401107490F5D18C84A43
:1031A0001168E940C90700D1A1E00397801DD188CB
:1031B0009288B578059B1E1D002C00D196E0B3784F
:1031C000AB4207D3337877783F02FF18974201D399
:1031D0008F427AD9641E761DEEE700282BD17648FF
:1031E000B949095C022900D982E0B54E307A00283D
:1031F0007ED003970491022905D19008182101403F
:103200001007400F0D1801220292AA4031681140A8
:10321000F288B5880598071D002C67D03B78787830
:103220000002C318AB4203D3934201D8002949D10D
:10323000641E7F1DF0E76048A349095C58E05E48C2
:10324000A149095C022907D190080B4618210140C9
:103250001007400F0D18194699480068E840C0074C
:1032600046D050009D4A1018C0880290002803974D
:10327000049101D0D01C00E0901C007811880191CD
:103280008F49CF888988059A121DC0B20097002CFB
:103290002CD09378834212D3137856783602F618DE
:1032A0008E420CD3BE420AD82F46029D731B00D219
:1032B000AB1B9BB2019DAB423D46009F07D8641EED
:1032C000521DE4E70298707310E007800EE00720BB
:1032D000284001210A468240E808804B1818212323
:1032E000DB00C45C1443C45475484173039F0499C4
:1032F00002290DD8002F0BD00599087949790902C8
:10330000081881086E48427A8A4201D90121C173A6
:1033100006B0F0BD10B56A49487A002810D0C87BC5
:10332000002804D0234800220A54CA7306E021482A
:103330000A5C00230B54CB73002A01D0042400E064
:10334000002466480079022817D0012812D00028EE
:1033500018D10A7A0120002A29D0174A5A4B9A5CC0
:10336000022A24D8487B00280ED0144800220A5490
:103370004A7310E0FDF768FC19E0FDF765FC0443B3
:10338000012014E0204610BD0C4A8B5C00208854BC
:103390004873002B06D00A7A087B904204D2401C66
:1033A000087301E008730A7A811A484248412043B1
:1033B00010BDC0460F0000012B6200000D0000018F
:1033C000F0B586B0019102903D4E0025F573B581B0
:1033D0003C493D48415C31723C4A825AB2803C4B88
:1033E000C35AF380012400942406039434192172F3
:1033F000A280E573A581E3803649441836483749F1
:10340000081805902120C0000F1828462B46202DB3
:1034100015D00246184600233B7026782179049483
:10342000059C237003461046A9400843AE40334331
:10343000641C0594049C641C7F1C0835E7E728493C
:10344000264F009A7A54039E1D4CA05183204000C1
:103450003A54236023483818B91D8022002A06D028
:1034600000230B800380801C891C521EF6E7019804
:10347000002801D0007800E00020029B1A49605427
:103480006072002B09D09878B870DA78FA701C88CE
:103490003C80597979711D7909E0082179711348C7
:1034A00078807D2004013C8006220A200025BC5340
:1034B0003D71BB195971DA7098701D7106B0F0BD7D
:1034C00098390100BE63000044400100BA63000067
:1034D000BC630000C0630000080100018C380100DB
:1034E0000601000106000001090000010A060000B3
:1034F000F0B587B0039300920C224243284810187D
:103500000690284C1419480016210290081A0190C0
:103510000B21C84305900020102831D001210490D0
:103520008140059E0B3600250398202D0BD0425B71
:10353000114202D0059A0B3202E00322AA40D24384
:103540001640AD1CF1E731460198C140164A1140C2
:10355000029886401640059D002D0AD00698421913
:10356000D7686019C3683740D7600B40C3602D1D12
:10357000F2E706980C3006900C340498401CCBE718
:1035800000200A49009B042808D01A46C240D207EE
:1035900001D100220A60091D401CF4E707B0F0BD0C
:1035A0000000064000000740FFFF3F00B00002405F
:1035B00008480169002900D07047016A0029FBD141
:1035C000016B0029F8D1016C0029F5D100210160BF
:1035D0007047C04600010040931B002E693B4545E3
:1035E000BB4C8D523457015B295ED3601B6313655E
:1035F000CB664F68A669D96A47002302F105FA0A2B
:1036000088102616941BB5207D25EA29002EC53189
:103610003E3573386A3B283EFF00010000FF000181
:10362000F42ACD933E419C171D0A3A06E1036D0230
:103630008401F50099006600410029001C00120079
:103640000B00070002000100000000000000000065
:103650000000942BEC94DA341B061A0137000B009F
:103660000200000000000000000000000000000058
:10367000000000000000000000000000000000004A
:103680000000000000C2020100035D42F900DA0000
:1036900000033342C101A20100001700F900DA0063
:1036A00002035D42F900DA0002001700F900400051
:1036B00003035D42F900DA0003001700F90040003F
:1036C00005035D42F900DA0005001700F90040002B
:04000005000100C135
:00000001FF
