:020000040001F9
:1000000000C00100C1000100ED120000F11200006B
:10001000F5120000F9120000FD12000001130000AB
:10002000051300000000000000000000091300009C
:100030000D13000000000000111300001513000054
:10004000EB120000EB12000085020100210201000A
:100050007501010069140000EB120000AD140000EE
:1000600055010100EB1200000D1500003F020100D8
:1000700049020100530201005D0201006702010014
:10008000710201007B020100910101002D140000AA
:100090002D1400002D140000CD1300000D140000DD
:1000A000503401000348854600F03CF80048004702
:1000B0002109010000C00100000000000000000054
:1000C00072B615481549016000F004F8FFF7EAFF21
:1000D00000F026FC02461160121D9545FBD17047C9
:1000E0006B46F0B469460E4A1047FEE7F220F7E788
:1000F000F320F5E7F420F3E7F520F1E7F620EFE74A
:10010000F720EDE7F820EBE7FB20E9E7FC20E7E745
:10011000FE20E5E7FF20E3E700BC0100EDA5CEDE11
:10012000E50D00001CB509480090094801900546FE
:100130000126009C05E0E36807CC33430C3C98475C
:100140001034AC42F7D3FFF7B1FF00009C3401003C
:100150009C34010010B5F3F715FF0446F1F7B7F929
:10016000A00106D501204006F3F7EAFE40BF20BFFC
:1001700020BF10BD80B5012080070068002801D095
:1001800030BFFDE700F038FBF0F7F4F880BD000069
:1001900070B51D48B34D28181C490E68F4F784FA51
:1001A000F4F7EAF9002E2CD104461948295C0429F9
:1001B00001D8082000E00C20022900D802201549AF
:1001C0006956491C814201DB02F068FC12482C543C
:1001D000E00703D001200005F3F7E4FEA00703D5F4
:1001E00001204005F3F7DEFE0C480168890605D5BD
:1001F0002021016001208005F3F7D4FE2020F3F7D1
:10020000D9FE40BF70BDC046AE630000140002407E
:100210002B62000029620000AA630000A8030140CD
:1002200080B50320F4F7E0F903F0A8F8F3F77AFDBE
:1002300002F034FCF3F79EFDF1F7C2FF80BD80B5FC
:10024000002002F005F980BD80B5012002F000F920
:1002500080BD80B5022002F0FBF880BD80B5032090
:1002600002F0F6F880BD80B5042002F0F1F880BD00
:1002700080B5052002F0ECF880BD80B5062002F0C4
:10028000E7F880BD034801680622914308224A40EE
:10029000026070479C030140F0B58BB00493069157
:1002A0001146E52A019001D9082002E0812902D9EE
:1002B0000420059005E04F2901D8012200E0022228
:1002C0000592002215460792099217460892144695
:1002D000134603919BB28B421BD20698C65C002E3C
:1002E00014D09E0004988659002009998919099113
:1002F00047415E43089989190891039944419A1826
:100300001846584345190798401C079005981B1834
:10031000E0E70595069252485249085C801E02901B
:1003200000218BB2029898421CDD9B000498C358B0
:1003300003980E18B6B2304658430022089D2D1877
:10034000089554410998C01809905741069880199A
:1003500006907643059830180590491C0798401C74
:100360000790DEE7059EF317099839463246F0F705
:10037000D9FF03900D460698C317024606900898C9
:1003800021460293F0F7CEFF039A101A8D41EA1727
:100390000395294651405040801A9141079A56438F
:1003A000069A5243B61AC20F0A431AD0E20F00232C
:1003B000089DAA185C415208E50752190892FA0FE5
:1003C000099DAA185F415208FB07D21809924008FC
:1003D000CA078018F20FB218561064107F1049082F
:1003E000E1E70399002900D540420799002929D067
:1003F000002E27D00AAA3146F3F780FD0199086044
:10040000079AD31708982146F0F78CFF04460D464B
:1004100009983946069A029BF0F784FF201A8D410D
:10042000010E2A02511800020122520396420FDBEC
:10043000CA0F002380184B414008D90740185910B3
:100440007608F1E70498006801990860002004E04C
:100450000AAA3146F3F752FD019948600BB0F0BD8E
:100460004962000044400100F0B59BB007930D9233
:10047000049106900EA8411C0A91014609310B9186
:1004800001462231089112300C9000212198209AC7
:1004900005920D4614291FD0069A52189379002B05
:1004A00018D01479567936023719994CF034A7428E
:1004B00010D22E46ECB20B9D2B5501230A9D2B55D5
:1004C00063000C9CE752D479127A12021219089C2C
:1004D000E252751C491DDDE7FF2190310991C002F0
:1004E0002ED407980278049801460B3101910146F9
:1004F000603100914A3004900D9B002A20D01F7873
:1005000078000499085A0999884216D9ECB2660015
:100510000C998853B800009908580392029300F090
:100520003DF9029B039A0899885301200A990855BE
:100530000198C05D0B9908556D1C5B1C521EDCE7D1
:10054000EEB200201221039005460346049002906B
:100550000196864228D00EAA575A6E4ABA1892B20D
:100560006B4CA24205D2C2B25B1CDCB2022C03D09F
:100570000492891C401CECE7049B5B000C9CE65A2F
:100580000223B74203960BD9099C641CA64237D3B9
:100590005F4CEF34A742019E39D83D460292E8E70E
:1005A0003D460292019EE4E7D8B20228059B039CD7
:1005B00032D14B200001A5420ADD611B09182BD066
:1005C000E003554A80180022F3F798FC2F1B08E03F
:1005D0002F1B391820D0E8034F4A80180022F3F768
:1005E0008DFC00210A9A049BD1544743F817400C14
:1005F0003818C00B0019029949000C9A50520AE0B1
:100600000EA9081800214170059B019E04E00020FE
:100610000A99049A8854059B00210C460D9A8E4233
:1006200009D00EA840184078002802D0E0B211543A
:10063000641C491CF3E701212046049400291CD0C6
:100640000990C3B200200A9001279F420FD20D9952
:10065000C85D0B9A155CC9194C1E2678925D9542AF
:1006600003D920700E7001200A907F1CEDE70998D5
:10067000401E059B049C0A99E0E7E1B2994200D331
:1006800019460798017001220846002A1ED00590DD
:10069000C0B20A900020099001230A98834211D227
:1006A0000D99CF5C78000C9A155AC818461E3478FC
:1006B0006100515A8D4203D23770047001200990B5
:1006C0005B1CEAE70598401E099ADEE70698C01D04
:1006D00000210D9C079A1278914216D2625C52005A
:1006E0000C9B9A5AC31E1A70120A5A70625C52000E
:1006F000089B9A5A0270120A4270625C0B9B9A5CC9
:10070000431E1A70401D491CE4E71BB0F0BDC046F3
:1007100051050000C0FEFFFF000038FF012200214C
:10072000930605D0024200D0491C1206D20DF7E70D
:10073000C8B27047F8B50C460546164841780278AD
:1007400091420ED2002D0CD4072D0AD8002C08D4CB
:10075000072C06D8EBB201229A4083681E5D324214
:1007600000D0F8BD47683F5D3A42FAD016431E55A7
:10077000491C41700026084F082EF2D0B85D401980
:1007800040B2B9194978091949B2FFF7D3FFB61C2D
:10079000F2E7C04678390100E4330100002807D4AD
:1007A000C10B08D0C10D05D1010A4448084302E03D
:1007B000002000E0014880B27047C046FFFF000003
:1007C00070B55200049CA218128A04461D46002DE2
:1007D00005D00E882680891CA41C6D1EF7E75900E1
:1007E0000818801E192B06D201885143C90B41807D
:1007F000801C5B1CF6E770BD10B586B0274800680A
:10080000274A284988540020182804D06A46002323
:100810001350001DF8E76846A9228280224A02810F
:1008200059228281214A9208214B1A434280214A4F
:100830008A1892081A43C280012293031EA21288CA
:100840009408E21842821D4AA418C4821C4C0C1958
:10085000A4B2A408E31843811A4B1B4CE3189B0075
:100860000C3309241C4304239C4304800988174B40
:10087000C91889B289088918C1811549154A5118C2
:1008800089000C310C2291430A46093202820A3156
:1008900081820621EFF7B0FC06B010BD880301404D
:1008A000CA63000044400100C905000000000100C7
:1008B00000C0FFFF24620000003801000080FFFF3D
:1008C0005C620000000000009C3400009C66000098
:1008D000780100000000000005281BD8784400794A
:1008E00040008744041714020207C80610E04807B6
:1008F00010D111E0094A4A4301208303D218D20BD8
:100900002F23DB4353435918052903D270470807A7
:10091000400F01D00020704701207047AB0200005B
:1009200082B0012738065E490A1872B60A60DD4EA9
:1009300030183060F0F72EFE5A485B4931505B4862
:100940005B4931505B485C4931505C4C5C483051EC
:100950005C48456DB807006800281CD0F3F712FB0F
:100960000028FBD5A806800F0BD0F1F709FF5648E9
:100970000021817355497018326851181C22F0F714
:10098000E9FCF1F795FC5248102101604120400636
:10099000F3F7D6FA7CE02C460025EE433046F3F719
:1009A000CFFA00963046EB4EF3F7D6FA28200194A2
:1009B000044226D045483418F1F7DCFDE581658313
:1009C000BB2060801020404C172803D02554E575CB
:1009D000401CF9E725773F48A06164203E492A463C
:1009E00002F034F8284602F0DDFB1D205F2802D01B
:1009F0002554401CFAE701F04FFF38480F213154CD
:100A0000A573D348305C01F091FF02F003F834483D
:100A10000099016041603348305C2A4C2060F8073F
:100A2000F3F7C0FAF3F7B6FA0028FBD4676501982C
:100A3000C00702D1F3F7FEFA10E02B48315A7D20AF
:100A4000C00048432949F3F7DBFAF3F745FD28488E
:100A5000F3F7B0FA05200003F3F7A4FAF1F714FC5A
:100A60001025194F172D0CD0284610387A5DC4B2C6
:100A70000021204601F0D8F8204601F0E9FC6D1C69
:100A8000F0E701200221B3220023EFF701FF0B4C16
:100A90003059804740BF62B601F026FCFCE7C046F3
:100AA000004001005862000031190100546200004A
:100AB000090F0100506200008D1A00004C62000016
:100AC000451B000088030140183901003062000016
:100AD00000E100E000000F0F4A0200004862000041
:100AE00010000440CA63000024630000B80B00003B
:100AF00010510000FEB50C46204988423CD8089FA2
:100B0000032F029001920DD0022F06D0002F0BD19F
:100B10001846FFF703FE830007E01846FFF7FEFDC7
:100B2000034602E0022300E001231548F0490D5A74
:100B3000E120C600002D0AD0099938461F46FFF76C
:100B4000CBFEEB493B46002801D0280107E00D48C9
:100B5000085A002801D0000101E03046C830019A4F
:100B60000A21891ADAB25443CC40444302984643DE
:100B7000A64201D80020FEBD0120FEBD40420F006C
:100B8000326200003E62000010B50024E0B2072887
:100B900003D201F05DFC641CF8E710BDF0B5540011
:100BA000904B1C190025E580694DD14E755D022DD5
:100BB00005D1950818262E401207520FB218664D1F
:100BC0002E68D640F20716D0A21D891DEC88AD888C
:100BD0009B7800280FD00E789E4208D38E1E37785F
:100BE00076783602F619AE4201D3A64202D9491DE3
:100BF000401EEEE716800120F0BDC046C8400AD076
:100C00000649BB4A515C090601D4401E04E0012894
:100C100001D0801E00E00020C0B270475663000083
:100C200010B583235B006F4CE35C002B03D0FFF710
:100C3000B5FF012010BD00F037F810BD80B500F001
:100C400013F8002804D0444800210173022100E079
:100C500000210448634A11548320400011540120AC
:100C6000084380BD0601000110B53B4C217A0120EC
:100C7000002915D036499E4A515C022910D800F04F
:100C80006DF8002806D0217A207B884205D2401CCE
:100C9000207302E000202073217A411A4842484123
:100CA00010BDC04644400100FEB5294B904CE35CAA
:100CB000022B154605D1930818241C4013075B0F1F
:100CC000E518254B1B68EB400024DB072CD05200B5
:100CD000444B9A18D688002E0194009501D0DA1C56
:100CE00000E09A1C1C461378891D228802921A4C37
:100CF000E288A488DBB2002815D00D789D420FD37E
:100D00008D1E2F786D782D02ED19A54208D39542DE
:100D100006D8AF1B00D2771BBDB2029FBD4205D8DB
:100D2000491D401EE7E7019C2046FEBD0720009AB2
:100D30001040012421468140D0082A4A101821225F
:100D4000D200835C0B43835403484473ECE7C046F2
:100D50002B6200004440010018390100F0B585B055
:100D60000024019400940320C0431E4D1E49002816
:100D70000CD02A18535C54544326B600975D945502
:100D800003AA121813711772401CF0E7174E684639
:100D9000B06003A87060747068790F2800D30F20CA
:100DA0003070082C14D00027082F0FD00120B84035
:100DB0007168095D084207D0B168095D084203D136
:100DC00078B261B2FFF7B6FC7F1CEDE7641CE8E780
:100DD00070786979814201D9002000E0012005B0D6
:100DE000F0BDC0460C3801000C010001783901004B
:100DF000F0B585B002933D4C3D4B1B5D5B1E3D4CF9
:100E0000032B01D29B00E4188D008A18521CD3B228
:100E10000A9A934200D3134603922268009246191D
:100E2000049042590C9801900B9D084699420BD2B0
:100E300080CE97420C4600D80446974200D8174609
:100E4000491C3A462046F1E7002D00D02870C7B271
:100E50000021002F039846D0874244D2B90004985D
:100E600040184568001F0668701BC2175040AE420C
:100E7000334600DB2B46821A04984058C11A100CE6
:100E800002D049105208FAE7002905D0D003002209
:100E9000F3F734F8401000E01748AE4200DB404260
:100EA000010A7E220A40009DA95A144B04461C40A8
:100EB0001B1B5B1C4B43A91849886143C918490A8D
:100EC000FA0382180E48104008430199002900D007
:100ED0000860001202994143C81709138143094869
:100EE000814200D3014688B205B0F0BD45620000E2
:100EF00044400100F4A60100FF3F0000FF01000094
:100F00000080FFFFFFFF0000F0B5FFB08CB00D9236
:100F10001E9107468000F54D2818F5494058089065
:100F2000F44828181D90007D2490F348285C0A900E
:100F300025A800240470F148285C0790F048295C3B
:100F400007267B00EF48027A06920129219609D8EC
:100F5000BA02AA18101D20900325182004221F92FF
:100F6000022208E03A02AA18101D209070200822E0
:100F70001F92032235461D9EB67D2396E14EB67A1A
:100F800022973D4003402B43079890401F9A104002
:100F90001843079001F050FA139001201B9080072E
:100FA00006990029119605D0002E0DD0D54B1B1D9A
:100FB0001B9E0BE001680029CC4A0DD01168D24A73
:100FC0008B18D24A89580BE01B9ECE4B119A511EAA
:100FD0008A4151000E9107E0CB495318CB49515833
:100FE0000905890F0E911B9E19680C910068002855
:100FF00007D0BE480068C649405C0B90F2F7C2FFBC
:1010000005E0C348B949085C0B90F2F7C3FF0590AF
:10101000209F0A98219908400A900425182D06D08F
:101020001E9840190521F0F7AEF96D1DF6E7AF4A9D
:101030002498A04203D047A80655641CF8E7330261
:101040002498984205D247A900220A54A74A401C76
:10105000F7E70E98239DC5401D9881881591417D25
:101060001691047D407E192109011291A842049332
:101070001ED214943D6803211A91411ECBB2012B5C
:1010800000D801231A9868431A901D9AD47D907D48
:10109000D27C05260C9F7E43360AB5420CD947AD5B
:1010A000209F002B0ED000262E706D1C5B1EF8E7D3
:1010B00000202190229BA4E047ADEB185B1E002589
:1010C0001D70209F1A9B1B1919930E9BD8405243E9
:1010D000CDB2012D00D80125199951431991EA0388
:1010E000A900C919091F25AB1C464A3410941C4697
:1010F00040340F945C1C099418331793C01CC0B281
:10110000189000202190229B1898854272D21C9240
:1011100047A800241F9544550E684D6823918F6899
:101120001A98301A4019C019C1178843214602463F
:101130002346F0F7F7F8199A801AA1410DD3B5426A
:10114000229B239905D9BD421C9E0BD2209F1F9D37
:101150004AE0209F1F9D1C9E46E0209F229B1F9DD2
:101160001C9E40E016980028209F1F9D0BD088A849
:101170001499009101940290E9B238462246159BD9
:10118000FFF736FE01E088962846584A6149515CCF
:10119000002916D16049515C002901D012994018EC
:1011A00080B21399411A5D488142084600D35B48DA
:1011B0000029214600D401465948105A081A00D285
:1011C0002046219B092B0DD80121099AD154990061
:1011D000889A179C62500F99CD545900109A50521A
:1011E0005B1C2193229B23994E488019421C091DA8
:1011F0006D1C89E71D9881881591417D1691047DAC
:101200003A4A25A8014640311791014618311A91F2
:10121000411C18914A3023901494A11E0026424C80
:101220001F912097042E00D197E00C2058431018EE
:101230008019055DA94200DA8DE0A80039583818F8
:10124000021F1268914202D94268914209D26D1C74
:10125000AA00BA588A4202D98068824201D2234A3F
:1012600078E016980028E9B20BD088A80022149BD9
:101270000093019202903846159BFFF7B9FD014695
:1012800001E0C8038890194A2248105C002801D068
:10129000229B1BE02048105C0028229B01D0129862
:1012A000091888B21399421A1C488242114600D389
:1012B0001A490020002A1C90024600D40A460B4915
:1012C0001748095A511A00D21C99084A219809282E
:1012D00040D8401C239A401E28D0931C8FB21288FD
:1012E000BA42209F1A46F6D132E0C046444001007F
:1012F00004400000306200002C6200002A620000FE
:101300002B620000003801004C63000054630000B1
:1013100066630000426200004A620000FFFF0000B6
:1013200024620000FF7F00000C410000219B1B98FD
:10133000189AD05498001C90889A1A981C9FC251F1
:10134000209F1798C5545800239A11525B1C219373
:10135000F34A229B1F99761C64E725A82199017006
:101360000C2058438018EF49401803211591CD43B4
:10137000294600290CD04218127947AC0023A35407
:10138000FC2A03D847AC121993705370491CF0E73C
:1013900088A847A9249C22463B46FEF77DFFE248E9
:1013A000DF4E305C0119899A14925143CA17120E0C
:1013B00089180912889A13928C18E1178C43691CBA
:1013C000614380003A583818031F1B68D2184068E0
:1013D00010184018C1178843FFF7E0F91E9988706C
:1013E000000AC870D1483056002804D42046FFF7C0
:1013F000D5F9CB4A05E03246CD490898884200D35A
:101400000846189B1E990870000A487000258895A8
:101410001D9841890991017D1291491E0F91808982
:1014200000B2089025A801460B3122916030169039
:1014300010952198854200D1EFE0585D00287ED0BC
:10144000A9001A981C914058C10BC9B2149A514373
:10145000CA17120E89180912139A8E18F1178E43A3
:101460001B99401A012400281F9508D4F149491CF2
:10147000884204D3A1034118C90B152976D31598C6
:1014800046433046B04200DC304619961799495D14
:10149000129A8A4200D80F99C9B289007D182A1F72
:1014A00012687B586D680128014600D82146101A41
:1014B000C01846191D98C08886423BDDF017864348
:1014C0001D98C07D0A18D948DD49405C0546249224
:1014D0005543454300243046214632462346EFF724
:1014E00021FF281A2046884124D21B961A981C995D
:1014F00040181090249A571C781E844221D02494BE
:101500003819450800262846314614462A463346EF
:10151000EFF708FF2246201A3046884100D2012604
:10152000002E2846249C00D13846002E00D12C469F
:101530000746E1E70020189B1F9D5855F14A6D1C96
:1015400077E7002CBF4D1B9E05D088AA3046214668
:10155000F3F762F8054616981C9946502846F0F7AE
:101560009BF8FF28209F2CD9FF202DE0B14A104086
:101570004900B24A51184A888B889B18CD885B195C
:101580004243D20B9A1A09894143C80B1018002113
:10159000109A0B46EFF7C6FE0904000C4018099A92
:1015A000002A07D0C11712B2D317EFF7BBFEC90547
:1015B000400A40180899401815994E4380191F9DFC
:1015C00060E72846F0F768F8109A22991F9D485561
:1015D0001468E00BC1B2880038182246954B1A40B7
:1015E000491C954B43339A421B9406D289007918C3
:1015F0000268001F0068121805E089007958026827
:101600008A1808300146199B08688018C01A109083
:10161000189B93D20020109090E78B48105A24908A
:1016200025A81C304C2100238A4A219F1C465B1CA4
:10163000BB421AD225AD2D19AD78002D12D025ADA3
:101640002C196578002D0DD025AD6D5AAF26F6000A
:10165000B54207D80568061F3668AD1B954201DC08
:1016600000256570891C001DE0E70E98002802D057
:10167000049D543500E07825A249249A7348085CFB
:10168000002800D085009E48085C1F900027602637
:101690004A2420972198B84222D025A8C019407822
:1016A000002819D025A8005B904215D385420DD99A
:1016B00025A880591F9900910D9901910C990E9AB6
:1016C0000B9BFFF717FA249A002805D0209BD8B26D
:1016D00088A90F545B1C2093A41C361D7F1CD9E7DE
:1016E00001212098002925D02190C2B20023249303
:1016F0005C1C94420FD288ADEE5C2299885DEF1895
:101700007D78495D814204D988A8C5547E70012046
:1017100024902346ECE72198401E2499E2E7C04636
:101720004440010004410000496200002C620000B6
:10173000FFFF00002098C1B20A98814200D30A99A5
:1017400087A8017001221F9108461199002A1FD015
:101750002090C0B22490002321935C1C24988442E2
:1017600011D288AEF55C6F00239AD05BF6187778BB
:101770007900515A814204D288A8C754757001205B
:1017800021902346E9E72098401E1199219ADDE730
:101790000698002819D0002917D02D48BC4C205C91
:1017A000F0F7DAFD2249635C10301E9C21460D9A49
:1017B00000F0D2FD0A9800900598019025A988AA0A
:1017C00087AB2046FEF750FE22E01E98C41D88AE6F
:1017D0001F990F46002F18D0357868002399085AB2
:1017E000E11E0870000A4870A80016990858FEF714
:1017F000D5FF2070000A60702298405D611E08705D
:101800001F99761C641D7F1EE4E70698002804D00B
:101810001198012806D187A8017808461E99079AD1
:1018200001F0A8FC7FB00CB0F0BDC0464440010000
:101830002C620000FF7F000004410000263A0100F6
:1018400043620000C0C62D00386200004B620000F9
:101850002862000065260100FCB5D64BEF4CE45C25
:101860000123022C25D8304E357A002D21D0022CB0
:1018700005D1930818241C401207520FA218012406
:101880000094944032682240F588B6880F1D0021EC
:10189000019188420CD03C787B781B021C19B44221
:1018A00003D3AC4201D8002A05D17F1D491CF0E7C3
:1018B000019B1846FCBD009B1B4A53738142F8D321
:1018C0000023F6E710B5184C217A0120002915D025
:1018D000B849D24A515C022910D800F015F8002806
:1018E00006D0217A207B884205D2401C207302E07A
:1018F00000202073217A411A4842484110BDC04659
:101900002B620000444001000749487B002801D0B9
:10191000012003E00548085C421E9041034A002371
:101920008B544B737047C046183901000D000001FD
:10193000F0B58BB00AA80021089101700120059034
:10194000040652480557B448B4490818417D8088B8
:101950000490069102290DD1514E00964E485149EE
:1019600004272A463B46FEF72BFF00964A480019FB
:101970004C490CE0474E00964748484903272A4601
:101980003B46FEF71DFF00964348001943492A468F
:101990003B46FEF715FF4448F04C20180990434899
:1019A00027182F20C64308990A460D46059B002E8E
:1019B0002DD03868002823D0079515460891E749AF
:1019C0003B480A5C9000081880193A49415C069827
:1019D00000280ED0002002900AAC01944020009014
:1019E0000998049BFFF704FA059B2A462A182078D9
:1019F00002E02A466A181046079D45190899491CB5
:101A00001802099C241809943F1D0C36CFE7C8B270
:101A1000401E032826D8F54C7844007940008744BE
:101A20000119051224482252E8B220E0234842431B
:101A300019035218530B204AA352AAB2424350181A
:101A40001A46400B0CE0901C82081B482252A81C2E
:101A5000800805E0501C420817482252681C4008C4
:101A6000C0B204E014480022E04C2252104614494F
:101A7000625223685A52134A9918022801D33F2808
:101A800000D30220A05408700BB0F0BD253A01002D
:101A900044400100C4330100263A01001E34010015
:101AA000A4330100EC3301005C6200005C660000BE
:101AB000AD6600009C660000A8660000AB0A00004E
:101AC0002462000049620000F0B589B0C64EF24CB5
:101AD000A05DF1F7F4F8054637482156A05DF0F710
:101AE000F1FF364FE25B6B08824248D20190A05D65
:101AF000012801D80F2500E03F2515400121890765
:101B00000968002902931AD03F21C943012800D84F
:101B10003031CF18012A03D1F1F754FA2748225A5D
:101B2000B8B2401C90420AD12548017A002902D05F
:101B3000807A012803D1F1F7F3F92048225A1E4890
:101B40002156A05DEFF7A3FF06461E48235803AFBA
:101B500028463946324698471B48205CF0F7FCFB84
:101B60001A49635C103039463246F0F7BBFB134F1D
:101B7000E05B401CE05340BFE25B029B0198002801
:101B80000BD0824209D10125A8031E46F2F70AFABA
:101B9000E802F2F7CDF93346E25B9A4208D3012519
:101BA0002803F2F7C5F96802F2F7FCF90020E053C8
:101BB00009B0F0BD2B6200002A620000266200001E
:101BC0000038010054620000286200002C6200000E
:101BD00070B5F94AF64B9C18114A8A40A2801B68DE
:101BE000104D5A5328220029164600D07826268107
:101BF0005D19AE80002900D11922A275AA740029AE
:101C000001D0012200E0022262756A74FEF7F6FF3D
:101C10002075287470BDC046306200004440010049
:101C2000420F000034620000F0B587B013469142C5
:101C300056D0164605460B301F22024001273C466F
:101C4000944042480694046004973846A84007220E
:101C50001640BFF34F8FBFF36F8F3D4FC4B2042EBA
:101C600002D23868A0433860E0433A6A02403A62E0
:101C70003A460594FC613748069C0460012913D15B
:101C8000022003951D46F2F7AFFC01F077FB3248C6
:101C9000C7490818F2F708FD3A462B46039D30481D
:101CA0000168049CA1430160701E062818D8C04634
:101CB00078440079400087441603030E0B0E0B0096
:101CC000106A05990843106226480699016007E0EA
:101CD0000599516301E00599D162106808431060CD
:101CE000184607B0F0BD434FF64CE05B029002206F
:101CF0001D490A460393F2F765FCF2F75DFCE05BD1
:101D00007F26F24301921040E053E019F2F7A2FC63
:101D100011482018F2F7DAFC02993140E05B019A91
:101D200010404018E0530E480168049A11430160C6
:101D3000284600F08DFB039B054A106A059908436D
:101D40001062E14806990160CAE7C04680E100E000
:101D50000400044080E200E0AE6300004440010063
:101D60000010004000E100E0A0860100FEB51C4626
:101D7000154601918D49D34F78543A6850541C4B05
:101D8000F8580322029212059043795C022900D38D
:101D9000022109050143F9507F263540F1F7A8F8E3
:101DA0001448395A72020A4001998907C90D51181D
:101DB000491939521048044010483958104A0A400D
:101DC0001119089A9205120B89183950084BF858C6
:101DD0000F21890288430999029A11408A028018CA
:101DE00009034018F850FEBD2B620000444001007A
:101DF000546300005C630000FF03000050630000B8
:101E00000000F0FF7CB50446838882784178007832
:101E1000E588E67800950196FFF7A8FFE178E0886D
:101E2000FFF7D6FE7CBD0000F8B572B6194DA54E81
:101E3000705D80072BD519480068C00727D0F2F7DE
:101E4000D9F8002823D130681549405C02281ED1FA
:101E50001448006800281AD1F2F794F8044651207B
:101E60000702F2F797F8BC4211D105210903884215
:101E70000DD1705DC00703D101204006F2F792F842
:101E8000FEF7BAFC715D04200840EEF77FFA62B6F7
:101E9000F8BDC0462D6200004440010050010040E2
:101EA000AB66000030040040F8B50D4600903F4896
:101EB000844F395C874C206800F090FF06466068CC
:101EC0003C49785016202946F0F732F969684A22D1
:101ED0008E54310A6A684B23D154217A6A684C23A4
:101EE000D154354979188A7E6B685F241A55CA7EA9
:101EF0006B68A0241A55CA7B6B68A3241A558A7B89
:101F00006B68A2241A55CA786B68A5241A5589787B
:101F10006A68A423D1548022EE49872A06D08B1800
:101F2000803B1B786C68A354521CF6E76A68CB7937
:101F3000872413550A7A6B6870241A554A7A6B689D
:101F400071241A558A7A6B6872241A55C97A6A689C
:101F50007323D15419490A88130A6C68B126A35512
:101F60006B68B0241A556A688B78B22413556A6876
:101F7000CB78B32413556A684B79B42413556A6837
:101F800009796D23D154D449795C6A687423D1549A
:101F900069680B4A12787823CA54002800D0F8BD2B
:101FA00069682022009B8B54F8BDC0462B6200005C
:101FB000444001004C630000306200000C38010016
:101FC000243A01007CB53E4820250560BFF34F8FC1
:101FD000BFF36F8FDE48DF4900260E546846EEF7E8
:101FE00029FC0098047A38480560204610380825F6
:101FF0000F2814D920464038092822D2E00033495E
:10200000401833494018FFF7FDFE69462046FFF7A8
:102010004BFF054620462946F1F71EFA7CBDC04617
:102020007844007940008744310807072B271B1E9E
:102030004107070707072319ECE76846F0F71AF886
:10204000E7E720468038032804D269462046EFF7A8
:1020500061FC7CBDFF2CDDD10D25DBE7F04308E002
:1020600016206946D3E717206946F0F761F8D0E7F4
:10207000012000F03FF8CCE7684600F06BF8C8E7B5
:10208000684600F067F805460028C3D11148007A79
:1020900000F09AFC6846EFF7EDFF0F48022101605F
:1020A000F0F766F80546FEF76FFDB3E718206946BE
:1020B000F0F73EF8019800F011F83546AAE7C0465F
:1020C00080E100E04440010000E100E05434010000
:1020D00000FEFFFF00380100840301402230002190
:1020E0007C4A422904D053185B7B4354491CF8E7CF
:1020F00000207047F8B5F6490A7B53B2C318134C59
:1021000025682D066468E407240A6419E4151D197E
:1021100001231E02AD196D0A16D1DE070C4B1F6894
:102120003D46354004D11C6034431C60274635468B
:1021300012180A73F905C9150818284318600120F8
:10214000F2F7E8FA0020F8BD0E20F8BD18000140B3
:1021500030100140F0B587B0054600682021415C91
:102160000A46403A04462034092A00D393E00494F6
:102170005649DA4A5618F1F77FF902902F46286837
:1021800002464A32547DB476D44909680391504BD3
:10219000CD182C76A024045DF4766C760446A03429
:1021A000E3781B02F381A1785918F181A981617943
:1021B000090271802379C9187180454B039CE15253
:1021C0000146243149782423C35C0902C91889B225
:1021D00053784A24005D1B02181880B2927800F0F0
:1021E00035FC8024872C0ED020468038B8490D1944
:1021F000803D29783A68165DC0B23246FFF714FD7B
:102200002E70641CEEE73E6830466D30817EB04C27
:10221000E171C17803912172027962724379A372EC
:102220008179E1723446B0346778B025755D3F023C
:102230007D1905AF3D80A578BD70E578FD702479E6
:102240007C716D24345D3C71C079234CA34E3055B4
:10225000356828551C4C305D204D7519009101954D
:10226000039900F0AFF8305D00F060FB1D48305A74
:10227000002806D11A48305C002802D00225049CB0
:1022800004E005A800F08EFF049C029D0020207051
:10229000284607B0F0BD182906D0172908D01629FE
:1022A00000D164E70925F1E700F0AAFD0025EDE77C
:1022B000F1F7EEFA054600F0EFFA0348EF49085C43
:1022C00000F034FBE2E7C0462B6200003062000001
:1022D00032620000283901004862000026630000D5
:1022E000BE63000024630000B0B5184CA07B401C06
:1022F000A07300F045FA0320C502F1F743FE284021
:10230000A84201D1FFF7E0FB012080070068002808
:1023100004D0A17B1B2000F0B9FB13E06B480068E0
:10232000C1B2102000F0B2FBA17B1A2000F0AEFB7E
:102330000748D249085C002802D0FFF743FE40BF9F
:10234000FFF772FDEFF74EFEB0BDC0461839010031
:10235000A863000044400100F8B50091014607243D
:102360001C401D07ED0F6E00F61C6643DF06FF0FD5
:102370009B06D80FC3195B00F3185343C9187A00A2
:102380008918400008180099C91D002C18D003783E
:10239000CE1E0022727033704778777033704B1EF8
:1023A00086781E70002D01D1C01C06E0C3784A70EB
:1023B0000B7002794A700B70401D491D641EE4E7E2
:1023C000F8BD0000F0B5022801D30F2400E0072477
:1023D000E51A00D20025174B022801D3184600E069
:1023E000FF208C42264600D30E46E840B34094427C
:1023F000214600D311461840069A059B15460E4605
:10240000002E04D000272F80AD1C761EF8E79C42DA
:10241000254600D31D464B00D218A94207D810808C
:10242000921C491CF9E700201080921C491CA14213
:10243000F9D9F0BDFFFF0000022901D3034900E0F4
:10244000014908567047C046043A0100843901002A
:10245000F8B504461D4805681D48075DE9B210201F
:1024600000F014FB01263346A3401D4007203840EE
:10247000032818D002280BD001281BD11548002DA5
:1024800021D01549F24A515A7F220A40026011E0D8
:102490001F46002D0AD0B004F1F78CFD2120C004A6
:1024A000F1F74EFD05E01F46002DF4D03006F1F7A0
:1024B00081FD3B46054803620B341F2020408640C7
:1024C00007480660F8BD00210160F3E70000044002
:1024D00028390100A00301405C6300004440010072
:1024E00080E200E070B500F051FE0446012675025E
:1024F0002846F1F725FD2846F1F72EFDF0F72AFFD3
:1025000035032846F1F74EFD2846F1F753FD002C20
:102510000CD07003F1F74EFDF0F796FCF003F1F7E5
:1025200041FDA00702D554480221016070BDC0469C
:10253000FEB5F1F727FD04464507F1F72BFD002D09
:1025400002D5410700D58EE0E10700D080E002907F
:102550000125AE04600307D500F01EF9E804F1F789
:1025600029FD3046F1F7ECFC03208704E00107D594
:1025700020463840B04203D02120C004F1F7E0FCEF
:1025800020040CD5E803F1F7DBFCE6480068774946
:10259000405C002803D1F0F727FF374805602E0282
:1025A000E0031ED52804F1F7CBFCDE4A10686F4922
:1025B000405C002804D0F0F717FFDA4A2E48056087
:1025C00034420ED02E48105A00280AD10220019021
:1025D000F1F7E8FC0198F1F7EDFCF1F7EDFFF0F70A
:1025E00089FE284820401036B04204D13046F1F729
:1025F000A7FC00F0E1FA40372740402F04D14020EB
:10260000F1F79EFC00F010FBA00611D560040FD579
:10261000AE03029830420BD030462030F1F790FCE8
:102620003046F1F799FC8B48E349085CF0F738FD38
:10263000600505D5A802F1F783FC08200E49086063
:1026400020060FD58020F1F77BFCF0F76BFEFEBD76
:10265000F1F768FB00F022FA0420F1F7A3FC012057
:10266000F1F76EFCFEBD0320F1F7BEFF00F086FE21
:10267000EFF7A6FDFEBDC0464011014044400100F9
:102680002463000010010C00F8B5F1F77BFC05464F
:10269000F1F780FC0446052005420AD0E80707D080
:1026A000F1F768FB0420F1F77DFC0120F1F748FC0D
:1026B000F8BD680626D52D48D44E305C002811D0D0
:1026C000A8041ED4EEF726FB00281AD02848315C57
:1026D000EB48305C274A1768F0F7EBFA874210D2D4
:1026E000F0F704FB4020F1F72BFC234830588047DB
:1026F0000120C6023046F1F75DFC3046F1F752FC8E
:1027000000E040BFA8052ED5012675022C422AD034
:10271000DD48017A002909D0817A012909D1174AB7
:102720000021815481724020FFF752FAFFF7DAFE50
:1027300019E0124946548672007A022801D0DA2044
:1027400001E0D12040000221FFF742FA2846F1F7CC
:10275000F7FB2846F1F700FC34032046F1F722FC92
:102760002046F1F727FCF0F76FFBF8BDAC660000E0
:102770002C62000030040040586200000A00000192
:1027800080B5012080070068002802D0FFF77CFF99
:1027900080BDFFF7CDFE80BDF8B5F1F795FE2B4863
:1027A000B84C2018F1F780FF00F078F9294D6657F2
:1027B00030464130C0B228490F68EEF7DFFB002FEA
:1027C0003CD0002E09D4B048017A00292ED0AC4963
:1027D000625C042A0ED808210DE072B6F1F7D2FB34
:1027E000400705D11D48F1F7E5FB0220F1F7DAFBC0
:1027F00062B623E00C21022A00D80221022A01D865
:10280000002200E00122D140427A002A07D0012AAA
:102810000CD10022002E08D08E4206D006E0002EF9
:1028200001D08E4202D18E1901224272F1F754FE7C
:10283000701E605521684855300603D04020F1F7DE
:10284000B9FBF8BD11200001F9E7C046AE630000F6
:10285000444001002962000014000240020000040C
:1028600010B50C490A68027000224F2A03D008C92B
:102870008354521CF9E7012142560F231340284C80
:1028800023700023C056002800D413092348037086
:10289000084610BD44000140B0B594B000201E4C65
:1028A000802807D000212154221801231B06D1546F
:1028B000401CF5E719480021017019480170404893
:1028C000D44D285C002809D0012000062118164AA2
:1028D0001318204600F0B8FA14B0B0BD6846FFF7F0
:1028E000BFFF0028F0D06846017807220A40B04BAD
:1028F000EA548906490FAD4AA95401210906621814
:10290000214600F0D1FA0D20AA494F28DCD06A46B2
:10291000125C0A54401CF8E784390100253A010092
:10292000243A010044400100043A010070B594B01B
:102930000446BF20C043B74D20490246002A05D0B7
:10294000AB180646BF365E50121DF7E71C48285CE0
:10295000002801D014B070BD6846FFF781FF002841
:10296000F8D0012C0CD86846007841060ED440B24D
:1029700000281AD413482918684600F0DDFAE9E760
:10298000022CE7D100206946085600E040B200283A
:1029900005D40C482918684600F0B6FADAE7094869
:1029A0002918684600F05CFBD4E7064829186846F9
:1029B00000F06FFBCEE7C046444001001C630000FE
:1029C0004B6300005C62000010B50E492E4C605451
:1029D0002072002802D04020002108E00A48EE4979
:1029E00008580003800D0A4A89580905890FFFF726
:1029F000EFF80021A1726172012000062018817297
:102A0000417210BD08000001506300004440010005
:102A10005463000010B567490C7B0020087361B255
:102A200001290DDB00280BD10120FFF763FB641E99
:102A3000F5E7002807D10020C043FFF75BFB641CCB
:102A400061B20029F5D4C0B210BDC046F8B50C463D
:102A500005461046FFF7B8FFCE48CF4F395C2846F1
:102A6000F0F7B2FC01210906CE4D685028606E18BF
:102A7000C848395C2046F0F7A7FC70606860F8BD74
:102A80002B6200004440010000380100024A136834
:102A90001954526811547047E410000010B500201A
:102AA000E64A01460346072B0DD0D45C052C05D021
:102AB000042C06D101249C40214302E001249C40C7
:102AC00020435B1CEFE7024A9060116010BDC046D6
:102AD0003000044070B5144804680021D74A0B4602
:102AE0000D46072D0DD0565D052E05D0042E06D1BE
:102AF0000126AE40334302E00126AE4031436D1C57
:102B0000EFE7234203D10C408C4200D170BD8363B8
:102B10000163D079012803D00228F7D1C82000E052
:102B20006420F1F7F7FD70BD00000440FEB51E48BB
:102B3000994D285C000736D5964EA85D012828D807
:102B4000A5482C18BD4FB87A7A7A397AFB7A5B009F
:102B50005B1CDBB2009301944906090E5206120E6B
:102B60004000401CC3B20220FFF72CFC99482A5CAD
:102B70009148295C9148285C234600F09FFBA85DA2
:102B8000BB7A7A7A397AFD7A00950194FFF71AFCBC
:102B9000FEBD90482A5C8848295C8848285C8E4B9A
:102BA000EB1800F08BFBFEBD2D62000048630000B7
:102BB000476300002839010070B57948764DFF2140
:102BC0002954154A1368154C2C5D2E683154802009
:102BD000184020431060EEF747FE7B482C18204633
:102BE000F1F76EFA0E48285C2146F1F793FA6E4829
:102BF0002818F1F785FCF1F7BFFC0A4801210160B4
:102C00006648285C002801D0FFF764FF00F00CF84C
:102C100070BDC04644400100B4030140C9630000D8
:102C20004963000004000240F0B5B5B0594B5A4E5C
:102C3000F05C042801D8082200E00C22022800D809
:102C400002225649755C5649715C4C1C554F397AC5
:102C50000029049249D0022801D8002300E0012372
:102C60000395DA40E3B2002B03D07D7A9A4202D07A
:102C70000FE04C4D6D7A002D0BD1012179720021AE
:102C80004022009201911722F923FFF76FF8039D6C
:102C900024E09A4203D1012D07D0039D24E0049E35
:102CA0009E4273D1012D3C4EF7D100237B72A41AB2
:102CB0000229039D08D10221D122530000930191E2
:102CC0001F330321332206E00221DA220092019110
:102CD00003215D22F923FFF749F83F1D3868324987
:102CE00070507018F1F70CFC2A4B2D497454306861
:102CF0004454E2B20498904243D9F05C210601D0DA
:102D0000032815D32949715C294BF31800932F46EA
:102D100005AD2B46F1F73EF8264832582648315C7F
:102D20002648305C2B463D46F1F73AFAFFF7FEFEA7
:102D3000012004406000C540A80711D0FFF7CAFE7B
:102D40001F48315A1F4A0A406908C907890D51189E
:102D500031523018F1F77EFC1B483018F1F7B6FC01
:102D6000A0003168081819490968194A81501948A2
:102D7000305C19497118F1F731F92046F1F70AFC76
:102D800002E08020F1F716F935B0F0BD039D014B4C
:102D9000014EAAE72B620000444001004663000098
:102DA00029620000003801004C63000066630000E7
:102DB0005C6200002063000048630000476300007D
:102DC0005C630000FFFD0000AE63000020100140C6
:102DD000A06600004A63000026630000042901D8B1
:102DE000082200E00C22022900D802225043800A67
:102DF0000249884200D308467047C046FFFF0000E2
:102E000070B50146223100220C48422A04D08B5C66
:102E100084186373521CF8E701210E06084CA519AB
:102E20000D3021462A4600F074F9064A93192046CF
:102E3000294600F009F8002070BDC046283901007D
:102E400084390100043A0100F0B585B00491039083
:102E5000029301920020022824D00090820001A950
:102E6000895803AB9A580023042B18D000240D4630
:102E7000102C10D01657171901203856301810266C
:102E8000BE5780191126BE578019801C80082870F3
:102E90006D1CA41CECE7083120325B1CE4E70098B1
:102EA000401CD8E705B0F0BD80B503785B0607D4B9
:102EB0000020802807D0002313540B54401CF8E74F
:102EC0000D3000F026F980BDF8B500920D4606469B
:102ED0000020C74303204402A74214DA30462946A3
:102EE00000F044F83F18A742F6DA1F2038400121CD
:102EF0008140F817C00E381840118000009B1A5806
:102F00008A431A50E8E7F8BDBCB50C460546007880
:102F1000400601D50D2200E0162201A80221234619
:102F200000F036F800202856002804D401A82946CD
:102F30002246FFF7C9FFBCBDBCB50C46054600786C
:102F4000400603D401A816214F2202E001A8022165
:102F50000D22234600F01CF800202856002804D437
:102F600001A829462246FFF7AFFFBCBD70B5037824
:102F700045780024394ADEB2AE4206D88E5D5B1C2D
:102F80000370A419FF2EF6D0621C90B270BDC0462B
:102F90000170511E4170002B07D00020C02804D0C2
:102FA0000021C9431950001DF8E77047F0B587B0FC
:102FB0000092069100210191CB4306784578C178B3
:102FC0000591877803225102049702918B4242DADD
:102FD0000393019AEBB20699CC5C059973180370C0
:102FE000F6B2F440DEB2082E15D3083B03706D1C18
:102FF0004570EEB201798E4203D900241E46174A6D
:103000000AE019060DD00699895DDEB2059FBE1B48
:10301000049FB1400C191E463C401219BC42D9D045
:1030200001E00026F8E7511C89B2039B5B18029966
:103030008B42CBDA1F21194001228A40D917C90ED1
:10304000591849118900009C0393635893436350B6
:103050000299039BBAE707B0F0BDC046580B0000C9
:10306000BFB50C46054600780091400601D50D23FA
:1030700000E0162302A80C22294600F026F80020C2
:103080002856002804D402A829462246FFF78EFFBE
:10309000BFBDBFB50C4605460078400604D4009479
:1030A00002A8B0224F2303E0009402A80C220D23B3
:1030B000294600F00AF800202856002804D402A867
:1030C00029462246FFF772FFBFBDB0B55B1E0371F4
:1030D000D3084370072422400270C95C551C057058
:1030E000D140C90700D00824C4700021CD43A540B9
:1030F000EC438470072A03D1002202705A1C4270EC
:103100000498C02904D00022D2434250091DF8E798
:10311000B0BDFEB500910023C55601AC25804678B0
:1031200003277743AD007F19FF1CBF08E7807700B6
:103130007F19BF1CBF08A7807519AD1CAD0865803D
:10314000803A811CFF2B14D87F2B144600D8009C9A
:10315000E4189D084E5D0025042D08D0B7077F0FA9
:1031600001A8C05D60556D1CF0B28608F4E71B1D18
:10317000E8E7FEBD80B54D4B1B79012B02D1FDF771
:103180004FFD80BDFEF768FB80BDC04680B5474857
:103190000079012802D1FDF751FD80BDFEF792FBB9
:1031A00080BDC046F0B585B00190394E0027B7818B
:1031B00038493948415C3172384A825AB280384BBA
:1031C000C35AF380012500952D06029576193172B8
:1031D000B280B781F3803349441833483349081823
:1031E00004902120C000091838463D46202F17D0F2
:1031F0003E460746284600250D7022780391217926
:10320000049B1D70054638463746B1400843039974
:10321000B24015435B1C0493641C491C0837E5E766
:103220002349224F009A7A54029E194988518320DB
:1032300040003A540D601F483818B91D8023002BF8
:1032400006D000220A800280801C891C5B1EF6E7E3
:10325000019A002A09D09078B870D378FB7014884E
:103260003C8051797971157909E00821797112480A
:1032700078807D2004013C8006230A200025BC5371
:103280003D71BA195171D3709070157105B0F0BDD0
:1032900018390100BE63000044400100BA63000019
:1032A000BC630000C0630000080100010C3801008D
:1032B00006010001060000010A060000F0B587B013
:1032C000039300920C224243284810180690284C81
:1032D0001419480016210290081A01900B21C843C6
:1032E00005900020102831D0012104908140059ED6
:1032F0000B3600250398202D0BD0425B114202D0E3
:10330000059A0B3202E00322AA40D2431640AD1CBC
:10331000F1E731460198C140164A114002988640B3
:103320001640059D002D0AD006984219D7686019ED
:10333000C3683740D7600B40C3602D1DF2E7069885
:103340000C3006900C340498401CCBE700200A494E
:10335000009B042808D01A46C240D20701D100229F
:103360000A60091D401CF4E707B0F0BD00000640EC
:1033700000000740FFFF3F00B0000240084801691D
:10338000002900D07047016A0029FBD1016B002998
:10339000F8D1016C0029F5D1002101607047C046C9
:1033A00000010040931B002E693B4545BB4C8D52EC
:1033B0003457015B295ED3601B631365CB664F688E
:1033C000A669D96A47002302F105FA0A8810261671
:1033D000941BB5207D25EA29002EC5313E35733872
:1033E0006A3B283EFF00010000FF0001F42ACD9354
:1033F0003E419C171D0A3A06E1036D028401F50067
:1034000099006600410029001C0012000B00070013
:103410000200010000000000000000000000942BEA
:10342000EC94DA341B061A0137000B00020000008E
:10343000000000000000000000000000000000008C
:10344000000000000000000000000000000000007C
:1034500000B3020100035D42F900DA0000033342C9
:10346000C101A20100001700F900DA0002035D4269
:10347000F900DA0002001700F900400003035D4282
:10348000F900DA0003001700F900400005035D426F
:0C349000F900DA0005001700F900400008
:04000005000100C135
:00000001FF
